:10600000A0D4002045610008DFA900084D9E0008CB
:10601000DDA90008797200083DBE000800000000FC
:106020000000000000000000000000005FB6000853
:10603000E972000800000000CDAB0008A5B600081A
:106040005F6100085F6100085F6100085F61000830
:106050005F6100085F610008337700085F61000836
:106060005F6100085F6100085F610008D17200088D
:106070005F6100085F6100085F6100085F61000800
:10608000DD7200085F6100085F6100085F61000861
:106090005F6100085F6100085F61000835770008F4
:1060A0005F6100085F6100085F6100085F610008D0
:1060B0005F6100085F6100085F6100085F610008C0
:1060C0005F6100085F6100085F6100085F610008B0
:1060D0008DB500085F61000885BC0008A9BC0008F8
:1060E0006361000863610008636100086361000880
:1060F0006361000863610008636100086361000870
:10610000636100086361000863610008636100085F
:10611000636100086361000863610008A1B70008BB
:10612000636100086361000863610008636100083F
:10613000DFF80CD000F01CFC00480047D9760108BD
:10614000A0D400200748804707480047FEE7FEE745
:10615000FEE7FEE7FEE7FEE7FEE7FEE7FEE7FEE717
:10616000FEE7FEE755B7000831610008202A04DB8E
:10617000203A21FA02F00021704721FA02F3D040C0
:10618000C2F12002914008431946704740EA0103DA
:106190009B0703D009E008C9121F08C0042AFAD2DD
:1061A00003E011F8013B00F8013B521EF9D27047A1
:1061B000D2B201E000F8012B491EFBD27047002249
:1061C000F6E710B513460A4604461946FFF7F0FFF6
:1061D000204610BD421E12F8013F002BFBD111F8E2
:1061E000013B02F8013B002BF9D1704710B5044682
:1061F00004E00B7800F8013B03B1491C521EF8D2B1
:10620000204610BD421C10F8011B0029FBD1801A4A
:10621000704730B505460020034600E05B1C934202
:1062200005D2EC5CC85C201A01D1002CF6D130BD3F
:1062300070B5064605F0BEFE046805460A22002138
:10624000304600F07FF92C6070BDF0B480EA0102A6
:10625000D40F4200B2EB410F02D20246084611466B
:106260004A0042D0C30DDDB2C1F3C752AD1A202D92
:1062700035DAC1F3160141F4000204B15242C5F10E
:10628000200602FA06F12A411044B3EBD05F23D076
:10629000C4B1012DA0EBC35009DCF0BC4FF00042AB
:1062A00002EAC352DBB200F5000000F08CB94000F6
:1062B00000F1807000EBC350A0F1807040EAD17013
:1062C000490009E0490841EAC071A0EBC35000F55C
:1062D0000000400800EBC350F0BC00F06BB9614215
:1062E000012202EB4101001BF6E7F0BC704781F090
:1062F0000041AAE780F00040A7E730B480EA01023D
:1063000002F0004530F0004221F0004013D090B17F
:10631000C30DD40DC2F31601C0F31600E41A41F404
:10632000000140F400027D34914201D3641C00E07E
:106330004900002C02DA30BC002070474FF4000006
:106340000023914201D3891A034340084FEA4101D7
:10635000F7D151B1914202D14FF0004105E002D294
:106360004FF0010101E06FF0010103EBC45028443C
:1063700030BC00F01FB92DE9F04D81EA030404F0B0
:10638000004B21F0004514464FF0000A23F0004175
:1063900050EA050220D054EA01021DD0C5F30A5785
:1063A0000246C5F31303C1F31300C1F30A5640F4C8
:1063B000801543F48013A7EB0608101BD64608F29D
:1063C000FD3873EB050002D308F1010801E09218D3
:1063D0005B41B8F1000F03DA00200146BDE8F08D03
:1063E00000204FF48011064684460EE0171B73EB25
:1063F000050705D3121B63EB050306434CEA010CAA
:1064000049084FEA300092185B4150EA0107EDD18C
:1064100052EA030012D082EA040083EA050108432D
:1064200005D0101BAB4106D20122002306E000225A
:106430004FF0004302E06FF0010253101AEB060028
:106440004CEB085110EB0A0041EB0B01BDE8F04D9D
:1064500000F0E7B896230022114600F0B4B8C1F36B
:106460000A5210B5C1F3130140F2FF3341F4801119
:106470009A4201DA002010BD40F233439A42A2F260
:10648000334203DC5242FFF771FE10BD904010BD55
:1064900000F0004230F000400AD0C10D01F56071FB
:1064A000C0F3160042EA0151C20840071143704789
:1064B00000200146704730B50B46014600202022DF
:1064C000012409E021FA02F59D4205D303FA02F501
:1064D000491B04FA02F52844151EA2F10102F1DC61
:1064E00030BD2DE9F05F0546002092469B46884668
:1064F0000646814640241BE0284641464746224640
:10650000FFF734FE53465A46C01A914110D3114644
:106510001846224600F03EFA2D1A67EB01084F4656
:1065200022460120002100F035FA17EB00094E4108
:10653000201EA4F10104DFDC484631462A464346CA
:10654000BDE8F09F2DE9F04791460F46804604468E
:10655000002614F8015B2DB100F03EFA0068405DA2
:10656000C007F6D12B2D02D02D2D18D0641E4A461F
:106570003946204600F034FA27B13968A14201D1EA
:10658000C7F8008071054FF002040BD54042002887
:1065900003DD05F00FFD0460A007BDE8F08746F4B9
:1065A0008066E4E70028F8DA05F004FD04606FF087
:1065B0000040F2E70029A8BF7047401C490008BF0F
:1065C00020F00100704710B4B0FA80FC00FA0CF023
:1065D00050EA010404BF10BC704749B1CCF120045B
:1065E00021FA04F411FA0CF118BF012121430843E8
:1065F000A3EB0C01CB1D4FEA00614FEA102042BF14
:10660000002010BC704700EBC35010440029A4BF09
:1066100010BC7047401C490008BF20F0010010BCAE
:10662000704710B5141E73F1000408DA401C41F1E4
:10663000000192185B411A4301D120F0010010BD06
:106640002DE9F04D92469B4611B1B1FA81F202E07C
:10665000B0FA80F22032904600F09CF904460F46D2
:1066600040EA0A0041EA0B0153465A46084313D058
:10667000114653EA010019D0C8F140025046FFF715
:1066800075FD05460E4650465946424600F082F9D1
:10669000084305D0012004E020463946BDE8F08DCE
:1066A0000020054346EAE0762C4337430A98630509
:1066B000E40AA0EB08000022FD0A44EA47540A302D
:1066C00002D500200146E9E7010510196941DDE91D
:1066D000084500196941BDE8F04DA2E72DE9FE4FDC
:1066E000804681EA0300C00F0C46009021F0004173
:1066F00023F00045B8EB0200A94105D240462146EF
:1067000090461C460B46024623F00040104347D0FB
:10671000270DC7F30A00C3F30A510290401A0190F3
:1067200040286BDAC3F3130040F4801B00989246B4
:1067300020B10023D2EB030A63EB0B0B01985946FF
:10674000C0F14002504600F025F906460D4650467D
:106750005946019A00F02DF910EB08006141002420
:1067600087EA115284EAE7731A4340D0009A62B371
:10677000019A012A4FEA075215DC001B61EB020166
:106780004FF0004202EA0752CDE90042001C41F5F9
:10679000801132462B46FFF753FF03B0BDE8F08F60
:1067A00040462146F9E7001B61EB0201001C41F560
:1067B000801300185B412018A2F5001747EB030176
:1067C00040EAD570B6196D4111E06D084FEA360602
:1067D00045EAC0754FEA0752001B61EB0201001C3D
:1067E00041F5801149084FEA300000195141324605
:1067F0002B4603B0BDE8F04FFFF713BF009801220E
:1068000040000023D0EB020263EBE07300982146C6
:106810004FEAE074B8EB000061EB0401E9E783F0B4
:1068200000435BE781F0004158E72DE9FE4F81EA24
:10683000030404F0004421F0004100944FF0000BE9
:1068400023F0004350EA01045ED052EA03045BD017
:10685000C3F30A54C1F30A552C44A4F2F33401944F
:10686000A0FB0254C1F3130141F48011C3F31303DD
:1068700043F4801301FB024400FB034E840A970A91
:1068800044EA815447EA8357A4FB076802958D0ABE
:1068900005FB07854FEA932C04FB0C542705029D4A
:1068A0004FEA065847EA1637B5EB08056EEB070CBA
:1068B000870E920E47EA811742EA8312A7FB020174
:1068C000B6EB0B0164EB00042B0D43EA0C335E18AE
:1068D00044EB1C50DA465146E7FB0201C5F31304B2
:1068E0004FEA0B3343EA14534FEA0432019C43EA64
:1068F0000603A4F10C040294009CCDE900B4FFF758
:106900009FFE03B0BDE8F08F00200146F9E7C1F318
:106910000A52C1F3130140F2FF3341F480119A424D
:1069200002DA00200146704740F233439A42A2F255
:10693000334202DC5242FFF719BC00F02BB80000D2
:1069400030B5041E71F1000404DB4FF000444042F6
:1069500064EB0101141E73F1000405DB1C464FF0CB
:106960000043524263EB0403994208BF904230BD9A
:10697000064C074D06E0E06840F0010394E807008C
:1069800098471034AC42F6D3FFF7D6FBC047020855
:10699000E0470208202A04DB203A00FA02F1002036
:1069A00070479140C2F1200320FA03F3194390404D
:1069B0007047202A06DBCB17203A41FA02F043EA5F
:1069C000E07306E041FA02F3D040C2F120029140A8
:1069D000084319467047000000487047E03C020831
:1069E0002DE9F05F82460078002715468B460AF1B4
:1069F0000104B946302801D09DB113E014F8010B11
:106A00000127782803D0582801D045B10AE00DB1FC
:106A1000102D07D10027102514F8010B02E00825DE
:106A200000E00A250026B0460EE005FB080005FB45
:106A300006F1012701EB10461FFA80F8B6F5803FFA
:106A400000D3B94614F8010B294600F018F80028C5
:106A5000EBDABBF1000F05D00FB1641E00E0544625
:106A6000CBF80040B9F1000F06D005F0A3FA0221DF
:106A70000160C81EBDE8F09F48EA0640FAE73A28E0
:106A800000D2303820F02002412A01D3A2F1370091
:106A9000884201D34FF0FF30704770B58C1810F862
:106AA000015B15F0070301D110F8013B2A1106D153
:106AB00010F8012B03E010F8016B01F8016B5B1E6D
:106AC000F9D12B0705D40023521E0DD401F8013B48
:106AD000FAE710F8013BCB1A921C03E013F8015BB4
:106AE00001F8015B521EF9D5A142D8D3002070BD38
:106AF0000648C17839B10021C170054800880128D5
:106B000000D00120704700207047000000030020E3
:106B1000B800002070B5044600688168C943C90701
:106B20001CD1816821F00101816001F0F7FD05466B
:106B30000FE000BF01F0F2FD401B022809D9A06A56
:106B400040F01000A062E06A40F00100E062012025
:106B500070BD20688068C043C007EBD0002070BDC6
:106B6000F8B500260446009600688168C943C90745
:106B700028D0816841F00101816013481349006801
:106B8000B0FBF1F000E0401E00900028FBD101F0C6
:106B9000C5FD054611E000BF01F0C0FD401B022805
:106BA0000BD9A06A40F01000A062E06A40F001003A
:106BB000E06284F824600120F8BD20688068C0434A
:106BC000C007E9D10020F8BD0000002040420F00BE
:106BD00070B5134D0446A87909281ED200EBC012E7
:106BE000104E02EB402021783154304404F201224F
:106BF0000DA100F2012005F0B9F9A879621C00EBA3
:106C0000C01101EB4020304407A1401C05F0AEF953
:106C1000A879401CA871012070BD002070BD000043
:106C2000C000002048340020257300002DE9F04FFB
:106C3000EE4CDFF8BC930127207AADF2745D00259D
:106C4000C0B101287CD002284FD104F12E039A1E36
:106C5000911E04A804F0B4FA99F80000FB020E2873
:106C60006FD2DFE800F06E6EF06E6E6E6E6EEFEE5D
:106C7000ED6E6EECE2790DF26D3102918C39ACA8BB
:106C800047F60E160DF5597A0DF5307B019182B35A
:106C900099F80010082928D18DF8B052D5A1401CD0
:106CA000626F05F063F9D3A1A26F019805F05EF958
:106CB000ADF86263D0A2CFA1504605F057F98DF828
:106CC0006C7309F10102CBA1029805F04FF940F273
:106CD000AE2259466846FFF759FA0DF52C7898E828
:106CE0000F0004F031FA2772E5710DF2745DBDE812
:106CF000F08FFFE7A1790029F7D001EBC11202EB79
:106D00004122BE49DFF8E4821144A1F5805108F127
:106D1000800891F87F1D10294CD2DFE801F04B0864
:106D2000132B34954B4B4B9EAAB5C0CBD6E18DF8B7
:106D3000B052B0A1401CE26C05F018F9226D09E0D8
:106D4000D9E051E18DF8B052AAA1401C626D05F066
:106D50000DF9A26DA7A1019805F008F9ADF86263DD
:106D6000A5A2A4A1504605F001F98DF86C538DF849
:106D70006D551FE08DF8B0529EA1401CE26D05F0EC
:106D8000F5F8226EE6E78DF8B0529AA1401C626ECB
:106D900005F0ECF897A1A26E019805F0E7F8ADF8C0
:106DA000626395A293A1504605F0E0F88DF86C530C
:106DB0008DF86D75A179914D01EBC11000EB41206B
:106DC00028448038FFF71EFA50B1A07900EBC011BB
:106DD00001EB4020421987A1803A019805F0C6F8DE
:106DE000A07900EBC01101EB4020421981A1A2F56E
:106DF0002072029805F0BAF8A17901EBC11000EBFE
:106E000041204219A2F58050A2F5207290F87F1D12
:106E100089F8001077A109F1010005F0A7F840F208
:106E2000AE2259466846FFF7B1F9ACAE96E80F00BE
:106E300004F08AF9A079401EA071277255E7CAE0D4
:106E40008AE082E07BE062E08DF8B05269A1401CEC
:106E5000E26E05F08BF8226F7CE7657267708DF843
:106E6000B05264A1401CE26F05F080F8D8F8002011
:106E700070E78DF8B0725FA1401CD8F8042005F0CF
:106E800075F8D8F8082065E78DF8B05259A1401C74
:106E9000D8F80C2005F06AF8D8F810205AE78DF8D9
:106EA000B05254A1401CD8F8142005F05FF8D8F86F
:106EB00018204FE78DF8B0724EA1401CD8F81C2066
:106EC00005F054F8D8F8202044E78DF8B07249A1B5
:106ED000401CD8F8242005F049F8D8F8282039E7D4
:106EE0008DF8B05243A1401CD8F82C2005F03EF894
:106EF000D8F830202EE704F07BF903289ED2DFE893
:106F000000F002020300F0E602202072EDE63D49A7
:106F10003B48097845543C49087808B1401E087040
:106F200011200EF067FF00202073384805703848A4
:106F30000168491C01601E200EF05CFF54E0A28D28
:106F4000618D049806F040FB4EE0A28D618D04989F
:106F500006F052F9677247E02E4A2FA105A805F006
:106F600005F81EAE4FF400714FF0520805AACDE9A6
:106F70000028CDE902164FF6FF794B46A28D618DB0
:106F8000049806F0D5FCA08DBDF87810084480B2B6
:106F9000A085618D884201D3401AA08527A2CDE942
:106FA000002802964B46A28D049806F061FC022848
:106FB0000CD026A1CDE9001802964B46A28D618D1A
:106FC000049806F055FC022802D00DE0A7720BE0F1
:106FD0000320A07208E0A28D618D049806F0A2F94A
:106FE00008B1E77200E0E57225727EE6C00000207D
:106FF000524D00202573000000000000483400209E
:10700000CA080020280000202900002027000020B6
:107010008C0000207E6B00207B227061796D656E94
:1070200074526571756573744964223A222573221E
:107030002C22737461747573223A00002250726FAF
:1070400063657373696E67220000000022537563E5
:107050006365737366756C220000000001490020AF
:1070600088727047C000002005494A7A2AB1002280
:107070004A720449016001207047002070470000F7
:10708000C0000020D4570020044A917A21B1017039
:10709000002090720120704700207047C00000203F
:1070A00000B5ADF5237D0D4A0346CDE900120C4A2B
:1070B0000C490D4804F05AFF03208DF80800002009
:1070C0008DF80902084A09A10DF1090004F04EFFEC
:1070D00002A8FFF77DFD0DF5237D00BD9C0000207B
:1070E0007807002028470208EB7300202573000072
:1070F00000B5ADF5657D0E4A0291CDE900020A2387
:107100000C4A0D49A4A804F031FF03208DF80C00AF
:1071100000208DF80D02A4AA08A10DF10D0004F0C5
:1071200025FF03A8FFF754FD0DF5657D00BD0000A8
:107130009C0000207807002070470208257300009B
:107140002DE9FF414B4C94F82900002828D06079A4
:107150000025012630B101284AD0022820D1607ACA
:10716000F0B35BE0A07958B1208F401C80B220873B
:10717000B0F5C87F14D9A571BDE8FF4104F0E2B9AC
:10718000E07978B1608F401C80B26087B0F57A7F7B
:1071900006D9E57184F8355084F83650A4F84E507D
:1071A000BDE8FF8194F8360028B994F8350005F061
:1071B00087FB84F83660B4F84E00401C80B2A4F817
:1071C0004E00642808D984F8365094F83500401CE5
:1071D00084F83500A4F84E5094F83500072800E0F4
:1071E00017E0DDD100210920FFF75AFF6671D7E7CC
:1071F000207A50B1A08F40F6B831401C80B2A087F1
:107200008842CDD902206071CAE705F07BFC267266
:10721000C6E76672002102A805F09EFCE08F401CC4
:1072200080B2E0871E28BBD9012102A805F094FC9A
:10723000032780B19DF80D109DF80C00CDE90001E9
:107240009DF80B309DF808209DF809109DF80A0064
:1072500003F02CFD07E0E5876572A07A401CC0B200
:10726000A07203289CD36771E67203200FF0B8FB6D
:1072700096E7000008000020FEE710B500231A463C
:1072800005E010F81240521C23449BB2D2B2B2EB7C
:10729000510FF6D3D8B210BD0548017805480278E1
:1072A000521E114303D1C160084604F003BD70476C
:1072B0007D010020FC01002001B54FF47A7301220A
:1072C0006946024802F058F908BD0000C47A00205F
:1072D000014800F07BBE0000E46300200148406BE1
:1072E00000F074BE84720020704700000348C17D26
:1072F0000A29FCD30021C175704700000800002056
:107300000E48C17891B10021C1700D480088012854
:1073100002D0022802D009E0032070470948007813
:10732000222805D02A2805D0092805D0002070473A
:10733000012070470220704704207047000300209E
:10734000B8000020E00B00202DE9F05FADF5F25D04
:107350004FF494510DF6BC30FEF731FF414C60689C
:10736000B0F8DE1B253005F05FFD616801AF3846DF
:10737000B1F8DE2B253105F069FD00206080012683
:10738000667002F073FDFF200DF6BC3400904FF4E0
:1073900087734FF494728021204603F0A1FB2046AE
:1073A00003F0BAFB4FF03E0B7A25B8464FF0800948
:1073B000B2460024C5F180000BEB001715F105065D
:1073C00007EBD40104F0070218F8011029FA02F0C3
:1073D000014204F15400B1B280B24FF00103CDF884
:1073E00000A001D1FF2200E0002203F02BFB641C6F
:1073F000A4B2802CE4D36D1E2D042D0CD9D1194CD0
:1074000041F288360BE000BF00F010FA208980B20C
:1074100006F060FD2089284485B2B54203D200F011
:107420008DF90028F0D10DF6BC3000F071F802F0B3
:107430001DFD47200BF0AAFD0B490A2008700BA187
:107440001048626804F092FD07480FA12538626871
:1074500004F08CFD0448FFF7BBFB0DF5F25DBDE8C1
:10746000F09F0000F0010020A36B00202F617069E5
:107470002F5061796D656E742F25732F737461744D
:1074800075730000A46D0020257300000C4800B542
:10749000816985B041F0200181618069694600F011
:1074A000200004904FF40070009000200190022012
:1074B00002900390034801F033F805B000BD0000CE
:1074C00000100240001401402DE9F0414FF4947384
:1074D000002110271E468022084600F0F0F8002404
:1074E0002146002000F0D6F8242000F09BF800256B
:1074F000FF2000F0B3F86D1CADB2BD42F8D3641CA0
:10750000A4B2B442ECD3BDE8F04100F003B90000EE
:107510002DE9F04180464FF49473002110271E4658
:107520008022084600F0CBF800242146002000F01D
:10753000B1F8242000F076F85FF0000504FB075056
:1075400018F80000C043C0B200F088F86D1CADB25E
:10755000BD42F3D3641CA4B2B442E6D3BDE8F0410B
:1075600000F0D8B870B52E4C0546012210212046F7
:1075700001F0CFF8C82000F04DFE00221021204677
:1075800001F0C7F8C82000F045FE01221021204676
:1075900001F0BFF8C82000F03DFE012000F042F8E5
:1075A000272000F05BF8012000F058F8002000F0E0
:1075B00055F80C2000F036F8D72000F04FF8D62010
:1075C00000F04CF89D2000F049F82C2000F02AF83B
:1075D000A82000F043F83A2000F024F81A2000F028
:1075E0003DF83B2000F01EF8082000F037F83C2062
:1075F00000F018F8032000F031F8112000F012F824
:10760000032000F02BF8322000F00CF80024285D55
:1076100000F024F8641CA4B21E2CF8D3002070BD26
:107620000010014031B5002201210A4801F071F833
:10763000094C00221021204601F06BF89DF8000053
:10764000FFF73AFE2046BDE838400122102101F044
:1076500060B80000000C01400008014031B5012273
:1076600011460A4801F055F8094C00221021204625
:1076700001F04FF89DF80000FFF71EFE2046BDE820
:1076800038400122102101F044B80000000C0140F4
:107690000008014070B505460C464E20FFF7C2FFBA
:1076A000C5F3C700FFF7DAFF4F20FFF7BBFFE0B2DB
:1076B000FFF7D4FF200ABDE87040FFF7CFBF2DE9E8
:1076C000F04107461C4616460D464420FFF7AAFF28
:1076D000C7F3C700FFF7C2FFC6F3C700FFF7BEFF3F
:1076E0004520FFF79FFFE8B2FFF7B8FF280AFFF732
:1076F000B5FFE0B2FFF7B2FF200ABDE8F041FFF7A7
:10770000ADBF10B51020FFF78DFFBDE81040012080
:10771000FFF7A4BF10B52220FFF784FFC420FFF7B6
:107720009DFF2020FFF77EFFBDE81040FF20FFF700
:1077300079BF7047202000F0E7BE000001480078C4
:107740007047000056030020284810B5816986B0B4
:1077500041F004018161816901F0040104918169B2
:1077600041F480518161816901F480510491816902
:1077700041F0100181618069012100F01000049046
:107780000220CDE9000102900320194C03906946C4
:10779000204600F0C5FE01220221204600F0B9FF7C
:1077A0004FF47A7000F036FD03F0A0F803F0FAF819
:1077B000642000F02FFD0F48FFF7D4FEFFF784FE92
:1077C00040F6C41000F026FD06F0A6FD4FF4FA6066
:1077D00000F020FDFFF795FF00220221204600F077
:1077E00098FF03F011F806B010BD00000010024031
:1077F00000100140383C020810B540F6C41006F0F5
:1078000069FBFFF77EFF00220221034800F081FFA1
:10781000BDE8104002F0F8BF00100140024802210C
:1078200001700021817070475603002070B5244C10
:10783000207800282FD001282DD002282BD1A07825
:107840000025062827D2DFE800F0030B161C272EA0
:10785000012202211B4800F05CFFA580012019E0F5
:10786000A0886178084480B2A080B0F5FA7F12D376
:10787000A58002200EE003F039F803F093F803200E
:1078800008E0A0886178084480B2A080642802D310
:10789000A5800420A07070BD0B48FFF763FEFFF7C2
:1078A00013FE0520F6E7A0886178084480B240F610
:1078B000C411A0808842EED3A580A570257070BD4C
:1078C0005603002000100140383C0208014948706E
:1078D000704700005603002006490020C861064892
:1078E000016941F004010161016941F04001016158
:1078F00070470000F0740020002002400449A520D9
:10790000C96901F00201022900D10020704700007E
:1079100000200240064A0021D16106490A6942F06E
:1079200002020A614861086940F04000086170473E
:10793000F074002000200240044B0022DA61044A67
:10794000136943F00103136101807047F074002054
:107950000020024014480022C168CB06134904D518
:10796000CA6942F00202CA611022C3685B0705D5EA
:10797000CB6943F00103CB6142F00402C369DB072A
:1079800007D0CB6943F00403CB61C16921F0010149
:10799000C161A2F58071013901D0C2607047C1692F
:1079A00021F00101C161704700200240F074002005
:1079B00070B5054600F0B2FE0646114C09E0681CA1
:1079C00007D025B100F0AAFE801BA84201D90320F0
:1079D00070BDE068C007F2D1E068800601D52020C4
:1079E000E060E068C00605D4E069C00702D1E06845
:1079F000400703D5FFF7AEFF012070BD002070BD2A
:107A000000200240F8B50024009490F82420254678
:107A1000012A12D0012280F824204A681F23072A55
:107A20000DD20668776B521E02EB820293409F4391
:107A30000B6893401F43776319E00220F8BD066886
:107A40000D2A0AD2376BD21F02EB820293409F436A
:107A50000B6893401F43376309E0F76A0D3A02EB66
:107A6000820293409F430B6893401F43F7620A686A
:107A7000072306680A2A0AD3F7680A3A02EB420289
:107A800093409F438B6893401F43F76008E037693A
:107A900002EB420293409F438B6893401F43376140
:107AA0000A68102A01D0112A20D1124B02689A428A
:107AB00017D193681B0219D4936843F400039360B1
:107AC0000968102912D10C490C4A0968B1FBF2F17E
:107AD00001EB8101490000E0491E00910029FBD122
:107AE00004E0816A41F020018162012480F8245081
:107AF0002046F8BD002401400000002040420F0055
:107B00000068C06C704700002DE9F04104004FF0A0
:107B100000057FD0A06A002628B9E66284F82460B8
:107B2000204600F081F82046FEF7F4FFA16AC9065E
:107B300000D420B1A06A40F01000A0626AE0A16AFF
:107B400021F4885141F00201A162334923688B423C
:107B5000E16904D1B1F5402F01D14FF40021E7686C
:107B60004FF4807C41EA470261680A43A16861459D
:107B700008D0012906D00021D4F814E0BEF1010F8D
:107B800002D00AE06146F7E7C7B1A76A47F02007CD
:107B9000A762E76A47F00107E7625F6827F4694771
:107BA0000F435F60236899681C4F39401143996007
:107BB000A16861450BD0012909D00CE0DFF860E035
:107BC000A7690EEB47370F4347F40061E5E7218AC9
:107BD0000D05A5F580152168CB6A23F470032B43AE
:107BE000CB62216889680F4B1940914208D1E66247
:107BF000A16A21F0020141F00101A162BDE8F0811A
:107C0000A06A20F0020040F01000A062E06A40F09C
:107C10000100E0620120F1E7003C0140FDF7E1FFD7
:107C200000E0FFFFFE0E1FFF00B500680F4985B0A2
:107C3000884218D10E48816941F4007181618169DF
:107C400001F400710491816941F010018161806942
:107C5000694600F01000049001200090032001907C
:107C6000044800F05DFC05B000BD000000240140A8
:107C700000100240001001402DE9F84300260D4697
:107C80000446009600F04AFD804620688168C905D8
:107C900008D5A06A40F02000A06284F8246001208A
:107CA000BDE8F8834168C90503D4C06A10F4700FB9
:107CB00026D0022000F0FAFD38490968B1FBF0F740
:107CC0002068036936490B424FEA61014FEAA1126D
:107CD0001BD1C3684FEA611C13EA0C0F15D103696D
:107CE0000B4221D1C06810421ED114201FE0681C35
:107CF00006D045B300F012FDA0EB0800A84222D840
:107D0000206800688007F2D52AE003690B4202D19F
:107D1000C168114206D0026922490A4206D1C068F0
:107D2000084203D1542002E0292000E0FC20474310
:107D3000009813E0681C0ED02DB100F0EFFCA0EB12
:107D40000800A84207D9A06A40F00400A06284F8A5
:107D500024600320A4E70098401C0090B842E9D3B7
:107D600021686FF012000860A06A40F40070A06201
:107D700020688068C0F3424007280CD1E06850B901
:107D8000A06A20F48070A062A06AC00403D4A06A34
:107D900040F00100A062002082E700000000002007
:107DA000244992244992240070B5044690F8240096
:107DB00001280DD0012084F824002046FEF7D0FED3
:107DC00002004FF0000005D084F82400104670BD7A
:107DD000022070BDA16A40F20123994341F48071F1
:107DE000A1621F4D23681F49AB4218D10E6816F4DB
:107DF000702F14D0A66A46F48016A6620E68760527
:107E000005D5A66A26F4005646F48056A662A66AF0
:107E1000F6040AD5E66A26F00606E66206E0A66AD9
:107E200026F48016A6625E68E9E7E06284F8240022
:107E30006FF00200186020688368C3F34243072B89
:107E400005D1A84208D1096811F4702F04D08168C7
:107E500041F480118160B9E7816841F4A001F9E73C
:107E6000002801400424014010B5044690F8240085
:107E7000012807D0012084F824002046FEF74AFE9E
:107E800010B107E0022010BDA16A21F4885141F031
:107E90000101A162002184F8241010BD2DE9F05FDA
:107EA00090F821100024022903D0042181630124C9
:107EB00085E001680A6822F00E020A6001680A681B
:107EC00022F001020A603F4E3E4FB215DFF8F4C0C7
:107ED000DFF8F090DFF8ECA0DFF8E8B0DFF8E4E0DE
:107EE0000168783F13011502ACF1640CA9F1500947
:107EF000AAF13C0AABF1280BAEF1140E4FF4801836
:107F0000B14227D9B9420ED0614512D049451DD0A2
:107F1000514518D0594518D0714501D1424615E058
:107F2000294EB14201D1012210E0274E1436B14250
:107F300001D110220AE0244E2836B14206D0224A4E
:107F40003C32914201D11A4600E02A461E49091FDF
:107F50000A602BE0B94213D0614517D0494522D0C1
:107F600051451DD059451DD0714501D142461AE0F9
:107F7000B14202D14FF0807215E0134EB14201D1EF
:107F8000012210E0104E1436B14201D110220AE055
:107F90000D4E2836B14206D00B4A3C32914201D1F7
:107FA0001A4600E02A46074980394A60012180F8D4
:107FB0002110002180F82010416B01B18847204634
:107FC000BDE8F09F80000240080402402DE9F05F08
:107FD000C16B0A6801680B68046C4FF0040808FA6A
:107FE00004F8844D844E854FDFF814C2DFF81492F4
:107FF000DFF814A2DFF814B2DFF814E218EA020F77