:10A00000ABEB050000F0FF0B09E02346524640464B
:10A010000E9900F040F98146A5EB0900C5B2A246B1
:10A02000534659464046029A00F012F8039828B960
:10A030000BEB0500A0EB090000F0FF0B7019C6B296
:10A04000BEE704B03046BDE8F09F0000FDAF010858
:10A050002DE9F041044690F866001F4615460E466D
:10A0600030B1012809D002280CD0032815D10FE007
:10A07000616D20468847284408E0616D2046884786
:10A08000301A09E0616D20468847281AC5B204E0FD
:10A09000616D204688473044C6B2284684F85C602B
:10A0A00084F85D0039460025204600F041FC01009F
:10A0B00003D0204600F070FBC5B22846BDE8F08111
:10A0C0003FB581B0044690F88000089900283AD046
:10A0D0009DF81000002836D0012811D9022902D09D
:10A0E000032907D00CE09DF80820101A401C8DF8B9
:10A0F000080005E09DF80C20101A401C8DF80C009B
:10A1000011F0010521D094F845109DF80800814216
:10A1100019D894F84610814215D994F8483094F82B
:10A12000472004A90DF10C0000F014FA00280AD011
:10A130000095606B9DF810309DF80C2085689DF8A7
:10A1400008102046A84705B030BD94F847109DF888
:10A150000C008142F7D894F848108142F3D994F862
:10A16000463094F8452004A902A8DDE72DE9FF4F09
:10A1700081B090F88670DDF838901D468846064616
:10A180009FB10020834603984146401CC0B2009016
:10A1900008EB0500C3B23046039A00F0A6F8002889
:10A1A00029D080244FF0000A21E00120EAE700BF17
:10A1B00099F80000204202D086F8867004E096F8F4
:10A1C000850048B986F886B00123CDF800A0414645
:10A1D0003046039AFFF774FF08F1010000F0FF0812
:10A1E000640802D1802409F101096D1EEDB2002D31
:10A1F000DED186F8867005B0BDE8F08F08B590F81E
:10A200004730934210D890F8483093420CD990F8D8
:10A2100045308B4208D890F846308B4204D9002351
:10A2200000930123FFF74CFF08BD000030B4024C3F
:10A23000446030BC00F04EBA65AC010810B504466D
:10A2400090F8870010B12046FFF73CFE2046BDE89D
:10A250001040002100F08CB870B5044600F068FB97
:10A26000010016D0204600F0A6FB04F1580094F837
:10A270006E10054600F06BFA84F8840014F86F1F26
:10A28000284600F064FA61782846BDE8704000F086
:10A290005EBA002070BD30B511B30888401E84B28C
:10A2A000002006E04D6835F81050954203D0401C60
:10A2B00080B2A042F6D3A04212D28C68022202EBF6
:10A2C0004002A25A34F8100006E0CC6834F810407E
:10A2D0009C4203D0401C80B29042F6D3904201D3FE
:10A2E000002030BD0969085C30BD70B50D461E46C2
:10A2F000044690F8481090F84700049B00F075FB66
:10A30000002809D094F8461094F8450033462A46B0
:10A31000BDE8704000F069BB70BD70B5044600F048
:10A32000E8FB94F83D0094F83C100844C5B220685E
:10A33000407CA84204D8204600F058FC002070BDA4
:10A3400094F8870010B12046FFF7BCFD294620464F
:10A3500000F00EF8012070BD10B5044600F0C9FBF6
:10A360002046BDE8104000F041BC80F885107047E1
:10A3700010B5044680F83D10406B016820468847C0
:10A38000606B41682046BDE81040084780F88610A1
:10A39000032902D3012180F88610704710B50446C6
:10A3A000006D884209D004F16800216500F06CFB63
:10A3B0002046BDE8104000F051B810BD014941658C
:10A3C000704700004BA70108002180F8491080F871
:10A3D0004B10FF2180F84A1080F84C10416B4968FF
:10A3E000084770B504460025049825652363A163DA
:10A3F00084F83C2084F83D5084F8635084F88550FC
:10A40000012184F8861084F8871060630168204673
:10A4100088472046FFF7D8FF2046FFF7CFFF84F894
:10A42000665070BD7CB50C46009313460546084A3D
:10A43000084900F0EBFB01A800F020FB0146064BA9
:10A4400000949DF804202846FFF7CBFF7CBD000058
:10A45000ADAD010811AF010805AA010810B5016DE5
:10A4600000291AD090F9753080F8823090F9762062
:10A4700080F8832090F8811000290ED001290DD09A
:10A4800090F9724090F974100C449C4201DD80F800
:10A4900082408A4201DD80F8831010BD90F9771068
:10A4A0008B4201DA80F8821090F97810F1E72BB135
:10A4B000012B05D0022B06D0104402E0084400E036
:10A4C000801AC0B27047401AFBE72BB1012B05D0B0
:10A4D000022B06D0401A02E0104400E00844C0B24B
:10A4E0007047801AFBE738B5044690F84C0000909E
:10A4F00094F84A3094F84B2094F849102046FFF71E
:10A50000F4FE18B3012084F8800094F8451094F804
:10A510004900814201D284F8450094F8461094F82D
:10A520004A00814201D984F8460094F8471094F813
:10A530004B00814201D284F8470094F8481094F807
:10A540004C00814201D984F8480038BD002084F8CD
:10A55000800038BD30B504780D782544EDB2AC42AA
:10A5600005D99C4202D25D1EEDB200E014469C4229
:10A5700001D2954201D8002030BD944200D2144649
:10A580009D4200D91D460470281B0870012030BD73
:10A590002DE9FF4FC3F1010083B046B25842914606
:10A5A000DDF840A040008B4601271C46CDE9009A0B
:10A5B00000254FFA80F85B462246294615E0002E1A
:10A5C00008DB08F102004FFA80F8641E06EB080071
:10A5D000E4B246B26D1CBF1C7FB2CDE9009AEDB269
:10A5E000F01946B25B4622462946039800F005F86A
:10A5F000A542E4D307B0BDE8F08F2DE9FF4F83B04B
:10A600000E46DDE9108703EB060002901546A8EB25
:10A610000600019003EB05001C46F907A8EB050BAB
:10A6200000900DD002980BF0FF02C1B20398FFF723
:10A63000E5FD0198C2B20098C1B20398FFF7DEFDB4
:10A64000B907A4EB060AA4EB05090DD50BF0FF0230
:10A650000AF0FF010398FFF7D1FD019809F0FF010F
:10A66000C2B20398FFF7CAFD08EB0504390708EBEF
:10A6700006050BD50298E2B2C1B20398FFF7BEFD02
:10A680000098EAB2C1B20398FFF7B8FD78070ED57B
:10A69000E2B20AF0FF010398FFF7B0FD039807B09C
:10A6A000EAB209F0FF01BDE8F04FFFF7A7BD07B020
:10A6B000BDE8F08F38B590F84050049C0094521BD0
:10A6C000046BD2B2A04738BD38B5049C0094FFF7A4
:10A6D000F1FF38BD2DE9F0471C46914688460646F5
:10A6E00000F088FC00254FF6FF777268217830462D
:10A6F00090470346B84225D0641CA3F57F40FE383E
:10A70000F3D04A4641463046FFF7A2FC96F8661061
:10A7100031B1012907D0022908D003290FD10AE05D
:10A7200008EB000104E009EB000106E0A8EB0001E2
:10A7300001F0FF0803E0A9EB000101F0FF09284444
:10A74000C5B2D2E72846BDE8F0870020704710B5B3
:10A750000C4600F006F80122641EA240801A40B2A6
:10A7600010BD30B50568847A2A78E2406318DBB200
:10A77000082B09D36D1C05602D78C4F10804A54091
:10A780001543083BEAB2DBB201248C40641E14403E
:10A790008372204630BD00002DE9F843054600F1E4
:10A7A000580400F008F915F9616F2046697BFFF73E
:10A7B000CEFF8146A97B2046FFF7C9FF0746E97B0C
:10A7C0002046613DFFF7C3FF804694F9080000284A
:10A7D00055DDF019404247B2A37B20793A464946FD
:10A7E000FFF765FE2071A37B3A4660794946FFF783
:10A7F0006CFE60712179A77B02460B4637B1012FB1
:10A8000009D0022F3ED0032F0DD143E0277A3044E8
:10A810003B44DBB206E0891B491C277A5B1CC9B2AA
:10A82000DBB23844C0B200902846FFF75EFD30B37B
:10A830000020A07184F8070095F86A102046FFF701
:10A8400090FF814695F86B102046FFF78AFF074678
:10A8500000224946284600F025F8012239462846BC
:10A8600000F020F801212046FFF77BFF0028EFD100
:10A8700094F90700B042DFDB207B85F88600404674
:10A88000BDE8F883277A5B1CC91B491CC9B2DBB23F
:10A89000921B03E0277A3344DBB2D21B521CD2B2A4
:10A8A000401CBFE72DE9F74F84B00D46049C94F897
:10A8B0005E7094F85F805834207AC01BC6B201964F
:10A8C000B54200D201954FFA88F279B2207994F816
:10A8D00005B0A37B92468946FFF7E9FD0290A37B72
:10A8E000524649465846FFF7F0FD0246069808B121
:10A8F000217B02E0E07A50B9617B049880F88610F1
:10A90000A07B0090DDE901310498FFF7D9FBB54247
:10A9100007D3A81BC5B208F10100002700F0FF080B
:10A92000CAE77819A07184F8078007B0BDE8F08FF6
:10A9300070B50D460146006D1730FF2D10D8612D02
:10A9400002D3B1F87C1003E0412D02D3B1F87A10A4
:10A950000844417819B30278AA42F9D1801C70BD2D
:10A96000B1F87E100C1826460021304600F019F888
:10A9700004440221304600F014F8361DA842F3D3F7
:10A980004FF6FF72207802EA00216078084306D073
:10A99000A84201D1E01C70BDA0780444F2E7002079
:10A9A00070BD08444FF6FF720178407802EA012139
:10A9B000084480B2704730B5054600F158048165FF
:10A9C0000020A07215F86C1F2046FFF7CAFE207207
:10A9D00069782046FFF7C5FE6072A87E207310B12B
:10A9E0000020607330BD0120FBE78A4205D283421C
:10A9F00001D89A4203D9012070478342F9D8002038
:10AA000070470000F0B5046801F00707059E257C3B
:10AA10008024FC406A4302EBD101826B89B211446D
:10AA2000BEB900BF90F88620012A06D80A782243D2
:10AA30000A7090F88620012A02D00A7862400A70D3
:10AA4000640801D18024491C5B1E13F0FF03E9D187
:10AA5000F0BD90F88620012A06D80A7822430A70B1
:10AA600090F88620012A02D00A7862400A705B1EA4
:10AA7000294413F0FF03ECD1F0BD00000821017060
:10AA8000004870479076002070B505460878287019
:10AA9000487868708878A870C878E8700879287154
:10AAA0004879687188790C46A871E079E871207A54
:10AAB0002872607A6872A07AA872E07AE872207BC5
:10AAC0002873607B6873A07BA873E07BE873207CAD
:10AAD000287411212046FFF764FF68821321204665
:10AAE000FFF75FFFA88215212046FFF75AFFE88293
:10AAF00070BD2DE9F843064690F83C7090F83D5043
:10AB0000006800244FF6FF7890F8119031683046C5
:10AB10002A460B7CB16B04FB03FC1FFA8CFC08EA91
:10AB2000CC0C61440091002100F049F8641C6D1CBC
:10AB3000E4B2EDB2BC4201D24D45E7D3BDE8F883A3
:10AB400070B590F83C200368D10080F83F10197C64
:10AB5000202900D31F21C90080F83E1090F83D4005
:10AB6000E106090E80F840105D7CA618AE4201D9BE
:10AB70002A1BD2B280F8411001EBC20180F84210CA
:10AB8000F02180F84310998AF02901D880F8431009
:10AB9000997D80F8441070BDFFF7D2BF002180F886
:10ABA000451090F83E1080F8461090F8411080F85B
:10ABB000471090F8421080F84810FFF794BC1CB57D
:10ABC0008DF805108DF80620049C8DF80430009453
:10ABD000012284686B460F21A0471CBD30B48468F5
:10ABE0000023A44630BC1A460A21604730B484686A
:10ABF0000023A44630BC1A461021604730B4846854
:10AC00000023A4460A4630BC0B2160472DE9F041E1
:10AC100015460E460446069F00F00AF86761A660D6
:10AC2000C4E903532046BDE8F04100F013B800002A
:10AC3000002140F8081B064A026042608260C26040
:10AC4000C1768177C177FF21017780F821107047A5
:10AC5000CDAF010830B484680023A44630BC1A4646
:10AC600009216047080001D00A2801D14FF6FF7082
:10AC7000704700002DE9F0411E46174814464FF476
:10AC8000005318291ED004DC14291FD0172904D121
:10AC900006E019291CD0202918D00020BDE8F08139
:10ACA00001220E4F150329463846EDF732FD4FF4C9
:10ACB0007A73224631460A48EEF75EFC00222946A6
:10ACC000384601E0002204E0EDF723FD0120E5E72E
:10ACD00001221946F8E7000000140140000C014071
:10ACE000FC6E002013B50122046901AB1721A047B7
:10ACF0001CBD30B404691346A4460A4630BC172173
:10AD0000604730B4C4680023A44630BC1A461921F9
:10AD1000604730B4C4680023A4460A4630BC1521FD
:10AD2000604730B4C4681346A4460A4630BC1721B5
:10AD300060470000F8B50C464FEA000514F8011B07
:10AD4000182924D00EDC152919D0162917D0172957
:10AD500023D120788DF800006A4601212846FFF7AC
:10AD6000E0FF0AE0192912D0FE2916D122788DF8C9
:10AD700000202921284600F02BF9641CDEE7227808
:10AD80008DF80020EE6800232846B047F5E7002341
:10AD9000EE681A462846B047D0E7F8BD30B4C4681C
:10ADA0000023A44630BC1A46182160472DE9F04123
:10ADB0000646A1F1140015019846144602F0F0076A
:10ADC00006286BD2DFE800F063031A276363F821DB
:10ADD0003046FFF787FF01222C21304600F0F8F8BB
:10ADE00039463046FFF77EFF01222C21304600F025
:10ADF000EFF8E9B23046FFF775FF40E0F821304642
:10AE0000FFF770FF39463046FFF76CFFE9B2304676
:10AE1000FFF768FF38E0FA213046FFF763FF0122B1
:10AE20002C21304600F0D4F8454615E01C49082096
:10AE300015F8012B02F0F003120101F8013B401E4E
:10AE400001F8012B10F0FF00F2D1083CE4B2144AE3
:10AE500010213046FFF74DFF082CE7D20DE02F7888
:10AE6000304607F0F001FFF73DFF3807010E30468E
:10AE7000FFF738FF641EE4B26D1C002CEFD10122F5
:10AE80002C21304600F0A4F80120BDE8F08135699E
:10AE900022463046AC46BDE8F04160470020F4E76A
:10AEA000907A002070B50023456904461A4628218F
:10AEB000A8470023E5681A4614212046A847012226
:10AEC0004B21204600F084F8206829210279204691
:10AED00000F07EF800224B21204600F079F820682F
:10AEE00029210279204600F073F801224B212046E7
:10AEF00000F06EF82068292142792046BDE87040B4
:10AF000000F066B80160897C80F82210704700006C
:10AF100010B5092903D0BDE8104000F007B8024978
:10AF2000FFF7F0FF012010BD743B02082DE9F04748
:10AF30001E4682460A2906D00B2909D00F2910D0B7
:10AF40000020BDE8F087FFF7ADFF1F49504602E043
:10AF500022B11D491331FFF7EDFE33E01A49C91F35
:10AF6000F9E7B079C006050E7079202D4FEA500838
:10AF700003D3203DEDB208F108085046FFF70EFF5D
:10AF80003E2150463768FFF7C4FE002448F0800990
:10AF90002819C0B240F080015046FFF7BAFE49467A
:10AFA0005046FFF7B6FE96F804803A4641465046B2
:10AFB000FFF7B7FE641CE4B24744082CE8D35046C0
:10AFC000FFF79FFE0120BCE73B3B020800207047D3
:10AFD00030B444690023A44630BC604710B5104625
:10AFE000282902D0292903D100E00220EDF712F927
:10AFF000012010BD002180F82710704730B54FF6B2
:10B00000FF72A9B30A293FD090F82730541E7BB1B4
:10B010005B1E13F0FF0380F82730058C01F03F0121
:10B0200002EA851242EA010202842DD0204630BD98
:10B03000FC2905D3052280F8272001F001011FE03B
:10B04000F82905D3042280F8272001F0030117E036
:10B05000F02905D3032280F8272001F007010FE033
:10B06000E02906D3022280F8272001F00F0107E033
:10B070000AE0C02906D3012280F8272001F01F0131
:10B080000184D3E7084630BD104630BD10B588B105
:10B09000D0F8001271B191F800225AB1B1F806222D
:10B0A000B0F80402824205D191F80102F3F7F8F8F2
:10B0B000C00700D0092010BD2DE9F04FFF4CADF5C1
:10B0C000377D94F82D0000287DD00027A2974FF0FF
:10B0D0000108A4973E4684F81C803D462766B94681
:10B0E0004FF4804ADFF8D8B39CE00120F2F7F2FE7B
:10B0F00009F10109FCF7F4FFA49988431ED0A29836
:10B10000401C80B2A290B0F5FA7F20D0A0F5A061DB
:10B11000DC3913D194F833200A23B2FBF3F1B2FBEC
:10B12000F3F0B2FBF3FC03FB112103FB1C220AB179
:10B13000401CC0B2FDF7A8F80120A490206E40F694
:10B14000B83188421BD9FCF7CBFF98B117E094F8CF
:10B1500033200A23B2FBF3F1B2FBF3F0B2FBF3FCB2
:10B1600003FB112103FB1C220AB1401CC0B2FDF7F6
:10B170008BF8E3E7FCF776FEFCF704FF257740F653
:10B18000AC51894549D9FCF76DFEFCF7FBFE606FB9
:10B190002934F7F7C9FC0020F7F7F8FE257165712F
:10B1A0000F202072012684F807800220FEF78CFC15
:10B1B00014F82909F8B1E07802281CD1C1482422EA
:10B1C0000168ADA800E0DEE1EBF710F80E208DF885
:10B1D00000008DF8D852ADAABBA10DF20120F0F706
:10B1E000C5FEC0A10DF10100F0F7C0FE6846EBF707
:10B1F000EFFCF3F76FF8E57094F83300401EC0B22F
:10B20000FCF75AFF94F8290020B194F8331001207C
:10B21000EBF76EFF0220FAF7EDFD7F1CB7F5FA7F22
:10B2200000D9002751465846EDF76EFA08B126B10D
:10B230000AE0002E3FF459AF06E0FCF751FF18B9C1
:10B2400094F8330084F82200002749E00120F2F747
:10B2500041FE7F1CB7F57A7F42D9606FF7F764FC37
:10B260000120F7F793FE84F82D5084F82E5084F8CF
:10B27000308001260220FEF727FC94F82900E8B16F
:10B28000E07802281AD18F4824220168A2A8EAF7A0
:10B29000ADFF0E208DF800008DF8AC52A2AA8AA155
:10B2A0000DF20120F0F762FE8EA10DF10100F0F722
:10B2B0005DFE6846EBF78CFCF3F70CF8E57094F84C
:10B2C0003300401EC0B2FCF7F7FE94F8290020B10D
:10B2D00094F833100120EBF70BFF0220FAF78AFDF8
:10B2E00051465846EDF710FA012801D01EB139E158
:10B2F000002EABD036E140F21E30BF1E87427DD219
:10B3000084F82D5084F82E504FF6FF70FBF7C8FFDD
:10B31000754E94F8330006EB800010F8031D491EAB
:10B3200001702E20FAF766FDE078A6F5B4770228C2
:10B330002FD194F8290060B3624824220168A1A8A3
:10B34000EAF754FF8DF8A85294F8290080B10E2036
:10B350008DF80000A1AA65A10DF20120F0F706FE0C
:10B3600060A10DF10100F0F701FE6846EBF730FC3B
:10B37000656794F8330006EB800010F8020C00EBD0
:10B38000400007EB80008068F0F794FCF2F7A2FF22
:10B3900048E094F83300616F06EB800010F8020C6F
:10B3A00000EB400007EB80008068081A6067606F60
:10B3B000A0651920FAF71EFD94F8330006EB800013
:10B3C00010F8020C00EB400007EB80008068F0F7FB
:10B3D00071FC94F8290028B394F82100642821D244
:10B3E000401C84F82100494900200A5C1AB1401C25
:10B3F000C0B26428F9D301F8008000E03EE0444A7E
:10B4000094F83310115406EB8101653211F8021CD7
:10B4100001EB410107EB8101098922F8101011208D
:10B42000FAF7E8FCE570606FF7F77EFB0020F7F7AE
:10B43000ADFD84F83080374894F83310334B08441E
:10B44000643310F8010C06EB810133F81020521C14
:10B4500023F8102011F8021C03F1C20201EB410194
:10B4600007EB810152F820308968194442F8201016
:10B470000A20FAF7BFFC84F8335073E0606F293478
:10B48000F7F752FB0120F7F781FD2571657184F80C
:10B490000780A07A401EC0B2FCF70EFE14F82909FE
:10B4A00020B194F833100120EBF722FE0220FAF7C6
:10B4B000A1FC0220FEF708FBE0782DE00800002048
:10B4C00000180140F40100202F6170692F5061794C
:10B4D0006D656E742F25732F6661696C2F636F6EB7
:10B4E0006669726D00000000880600202F61706997
:10B4F0002F5061796D656E742F25732F737563639B
:10B500006573732F636F6E6669726D00CA080020E1
:10B510009D070020700B0020022822D194F82900FA
:10B52000F8B11B4824220168A1A8EAF75FFE8DF854
:10B53000A85294F8290090B10E208DF80000A1AA1D
:10B54000AFF27C010DF20120F0F710FDAFF26C01BB
:10B550000DF10100F0F70AFD6846EBF739FBF2F751
:10B56000B9FEE570FCF77EFCFCF70CFD0020F7F758
:10B5700069FCA570C820A4F840000DF5377DBDE832
:10B58000F04FFEF75DB90DF5377DBDE8F08F000097
:10B59000F4010020F0B52F4EADF56F7D96F8210037
:10B5A000002851D0F07F00284ED196F829000028BD
:10B5B0004AD0002528482C46015D012947D0641C4B
:10B5C000E4B2642CF8D300BF244F86F82050A7F2D1
:10B5D0001511785D242201EB8000A1F5B47110F8FB
:10B5E000020C00EB400051F82010E5A8EAF7FEFD40
:10B5F00000248DF8B843FEF715F8164907F16502E7
:10B60000803132F81520496800920390E5AB491C5F
:10B61000CDE901317B5DA7F125021149A5A8F0F71D
:10B62000A5FC02208DF810008DF81142A5AA0DA1ED
:10B630000DF11100F0F79AFC04A8EBF7C9FA002805
:10B6400002D00120F077F4660DF56F7DF0BD254640
:10B65000BAE7000008000020CA0800209D0700206B
:10B66000EC3D0208257300002DE9F047FEF712F8C3
:10B670002D4C6070FEF71AF8A070FEF72FF8617875
:10B68000A27801EBC10000EB011002EB8005274816
:10B6900000294FF00109427800784FF0000800EBD4
:10B6A000C00303EB001002EB8007214842780078CA
:10B6B00000EBC00303EB001002EB80061D4801788D
:10B6C0000DD021B180F800801A20FAF793FB1649BB
:10B6D000491D881CB74214D2BD4215D216E000297C
:10B6E000F5D180F800901A20FAF784FBFEE7227863
:10B6F0000AB184F800800A78027049784170BDE888
:10B70000F087FCD9BD42F2D2B542F0D3217809B11D
:10B7100084F800800449C91C0A7802704978417095
:10B72000054981F80090EAE7E40100205A00002072
:10B73000580000203C000020A800002007480849CD
:10B7400090F8CA250A7090F8CB254A70891C90F8A9
:10B75000CC250A7090F8CD054870704700F00708B6
:10B76000E7010020F8B517460E460446ECF736FE12
:10B77000ECF7E2FD1F48ECF7B3FDECF7D3FD1D48F5
:10B7800081680020002926DA1A4901221039B6F50D
:10B79000006F8C60086001D302EBD622CA60009073
:10B7A000144869461038ECF747FD2546264409E061
:10B7B0007819001B0023028829460120ECF7CEFDF2
:10B7C00000B9AD1CB542F3D302E000BF54F8020B40
:10B7D000B442FBD30AE021463819401A00230288FC
:10B7E0000120ECF7BBFD08B1ECF78CFDBDE8F8409B
:10B7F000ECF78EBD3C72002000000000000000004D
:10B800000102030406070809000000000102030406
:10B810000000000000000000000000000000000028
:10B820000000000000000000000000000000000018
:10B830000000000000000000000000000000000008
:10B8400000000000000000000000000000000000F8
:10B8500000000000000000000000000000000000E8
:10B86000003FFFFFFFFFFFFFFFFFFFFFFFFFFF00A6
:10B8700003FFFFFFFFFFFFFFFFFFFFFFFFFFFFE0F3
:10B8800003FFFFFFFFFFFFFFFFFFFFFFFFFFFFF0D3
:10B8900007FFFFFFFFFFFFFFFFFFFFFFFFFFFFF8B7
:10B8A0000FFFFFFFFFFFFFFFFFFFFFFFFFFFFFFC9B
:10B8B0001FFFFFFFFFFFFFFFFFFFFFFFFFFFFFFE79
:10B8C0001FFFFFFFFFFFFFFFFFFFFFFFFFFFFFFE69
:10B8D0001FFFFFFFFFFFFFFFFFFFFFFFFFFFFFFE59
:10B8E0001FFFFFFFFFFFFFFFFFFFFFFFFFFFFFFE49
:10B8F0001FFFFFFFFFFFFFFFFFFFFFFFFFFFFFFE39
:10B900001FFFFFFFFFFFFFFFFFFFFFFFFFFFFFFE28
:10B910001FFFFFFFFFFFFFFFFFFFFFFFFFFFFFFE18
:10B920001FFFFFFFFFFFFFFFFFFFFFFFFFFFFFFE08
:10B930001FFFFFFFFFFFFFFFFFFFFFFFFFFFFFFEF8
:10B940001FFFFFFFFFFFFFFFFFFFFFFFFFFFFFFEE8
:10B950001FFFFFF8003FFFFFFFF0007FFFFC7FFEAF
:10B960001FFFFFE0001FFFFFFFE0003FFFFC3FFE67
:10B970001FFFFF800003FFFFFF000007FFFFC7FE60
:10B980001FFFFE000000FFFFFC000000FFFC3FFE69
:10B990001FFFF80000003FFFF8000000FFFDFFFE62
:10B9A0001FFFF80000003FFFF8000000FFFDFFFE52
:10B9B0001FFFF80000003FFFF8000000FFFDFFFE42
:10B9C0001FFFF00000001FFFF00000003FFFFFFE20
:10B9D0001FFFC00000001FFFC00000001FFF7FFE10
:10B9E0001FFF8000000007FFC00000001FFC4FFE8B
:10B9F0001FFF8000000007FF800000000FFDEFFE2A
:10BA00001FFF8000000007FF800000000FFDEFFE19
:10BA10001FFF0003FF0003FE0007FE0007FE0FFEEE
:10BA20001FFE0007FF8003FE0007FF8007FF3FFEA9
:10BA30001FFE0007FFC003FC001FFFC003FFFFFE47
:10BA40001FFE000FFFE003FC001FFFC003FFFFFE0F
:10BA50001FFE001FFFE001FC001FFFC003FC0FFEE4
:10BA60001FFE001FFFF001FC003FFFE003FDFFFE93
:10BA70001FFE001FFFF001FC003FFFF003FDFFFE73
:10BA80001FFE001FFFF001FC003FFFF003FE7FFEE2
:10BA90001FFE001FFFF001FC003FFFF003FE7FFED2
:10BAA0001FFE001FFFF001FC003FFFE003FC0FFE44
:10BAB0001FFE001FFFF001FC003FFFE003FFFFFE41
:10BAC0001FFE001FFFE003FC001FFFC003FFFFFE7F
:10BAD0001FFE000FFFE003FC001FFFC003FE3FFE40
:10BAE0001FFE0007FFC003FE001FFF8007FCCFFE04
:10BAF0001FFE0007FF8003FE0007FF8007FDCFFE4B
:10BB00001FFF0003FF8003FE0007FF0007FDEFFE9D
:10BB10001FFF8000FC0007FF8000F80007FCCFFE3D
:10BB20001FFF8000000007FF800000000FFE0FFED7
:10BB30001FFF8000000007FF800000001FFFFFFEC6
:10BB40001FFFC00000001FFFC00000001FFFFFFE1E
:10BB50001FFFE00000001FFFE00000003FFE0FFE9F
:10BB60001FFFF80000003FFFF00000007FFC0FFE09
:10BB70001FFFF80000003FFFF00000007FFC0FFEF9
:10BB80001FFFF80000007FFFF8000000FFFDFFFE30
:10BB90001FFFFF000001FFFFFE000003FFFFFFFE8D
:10BBA0001FFFFFC00007FFFFFFC0000FFFFC0FFEDD
:10BBB0001FFFFFE0000FFFFFFFC0001FFFFDFFFEA4
:10BBC0001FFFFFFE00FFFFFFFFFC01FFFFFDFFFE69
:10BBD0001FFFFFFFFFFFFFFFFFFFFFFFFFFC0FFE49
:10BBE0001FFFFFFFFFFFFFFFFFFFFFFFFFFFFFFE46
:10BBF0001FFFFFFFFFFFFFFFFFFFFFFFFFFFFFFE36
:10BC00001FFFFFFFFFFFFFFFFFFFFFFFFFFFFFFE25
:10BC10001FFFFF80000001FFFF00000003FFFFFE89
:10BC20001FFFFE00000001FFF800000003FFFFFE01
:10BC30001FFFF800000001FFF000000003FFFFFEFF
:10BC40001FFFF800000001FFF000000003FFFFFEEF
:10BC50001FFFF800000001FFF000000003FFFFFEDF
:10BC60001FFFE000000001FFE000000003FFFFFEF7
:10BC70001FFFC000000001FFC000000003FFFFFE27
:10BC80001FFF8000000001FF8000000003FE5FFE38
:10BC90001FFF0000000001FE0000000003FDCFFEBA
:10BCA0001FFF0000000001FE0000000003FDEFFE8A
:10BCB0001FFE0000000001FE0000000003FDCFFE9B
:10BCC0001FFE0000000001FC0000000003FE1FFE3C
:10BCD0001FFE0000000001FC0000000003FFFFFE4B
:10BCE0001FFE000FFFFFFFFC001FFFFFFFFFFFFE17
:10BCF0001FFE001FFFFFFFFC003FFFFFFFFFFFFED7
:10BD00001FFE001FFFFFFFFC003FFFFFFFE00FFED5
:10BD10001FFE001FFFFFFFFC003FFFFFFFFFFFFEB6
:10BD20001FFE001FFFFFFFFC003FFFFFFFFFFFFEA6
:10BD30001FFE001FFFFFFFFC001FFFFFFFFFFFFEB6
:10BD40001FFE0000000001FC0000000003FFFFFEDA
:10BD50001FFE0000000001FC0000000003E40FFED5
:10BD60001FFE0000000001FE0000000003FFFFFEB8
:10BD70001FFF0000000001FE0000000003FFFFFEA7
:10BD80001FFF8000000001FF8000000003FE3FFE57
:10BD90001FFF8000000001FF8000000003FE1FFE67
:10BDA0001FFF8000000001FF8000000003FCCFFEA9
:10BDB0001FFF8000000001FF8000000003FDEFFE78
:10BDC0001FFF0000000001FE0000000003FDCFFE89
:10BDD0001FFE0000000001FE0000000003E00FFE57
:10BDE0001FFE0000000001FC0000000003FFFFFE3A
:10BDF0001FFE0000000001FC0000000003FFFFFE2A
:10BE00001FFE0000000001FC0000000003FFFFFE19
:10BE10001FFE000FFFFFFFFC001FFFFFFFFFFFFEE5
:10BE20001FFE001FFFFFFFFC003FFFFFFFFE1FFE86
:10BE30001FFE001FFFFFFFFC003FFFFFFFFDCFFEC7
:10BE40001FFE001FFFFFFFFC003FFFFFFFFDCFFEB7
:10BE50001FFE001FFFFFFFFC001FFFFFFFFDCFFEC7
:10BE60001FFE0000000001FC0000000003FE3FFE7A
:10BE70001FFE0000000001FC0000000003FFFFFEA9
:10BE80001FFE0000000001FE0000000003FFFFFE97
:10BE90001FFE0000000001FE0000000003FFFFFE87
:10BEA0001FFF0000000001FE0000000003FC0FFE69
:10BEB0001FFF8000000001FF8000000003FDFFFE67
:10BEC0001FFFC000000001FFC000000003FFFFFED5
:10BED0001FFFC000000001FFC000000003FE0FFEB6
:10BEE0001FFFC000000001FFC000000003FE0FFEA6
:10BEF0001FFFE000000001FFE000000003FC0FFE58
:10BF00001FFFF800000001FFF000000003FDFFFE2E
:10BF10001FFFFF00000001FFFE00000003FE0FFEF8
:10BF20001FFFFFF0000001FFFFE0000003FC0FFE19
:10BF30001FFFFFFFFFFFFFFFFFFFFFFFFFFFFFFEF2
:10BF40001FFFFFFFFFFFFFFFFFFFFFFFFFFFFFFEE2
:10BF50001FFFFFFFFFFFFFFFFFFFFFFFFFFFFFFED2
:10BF60001FFFFFFFFFFFFFFFFFFFFFFFFFFFFFFEC2
:10BF70001FFFFFFFFFFFFFFFFFFFFFFFFFFFFFFEB2
:10BF80001FFFFFFFFFFFFFFFFFFFFFFFFFFFFFFEA2
:10BF90001FFFFFFFFFFFFFFFFFFFFFFFFFFFFFFE92
:10BFA0001FFFFFFFFFFFFFFFFFFFFFFFFFFFFFFE82
:10BFB0001FFFFFFFFFFFFFFFFFFFFFFFFFFFFFFE72
:10BFC0001FFFFFFFFFFFFFFFFFFFFFFFFFFFFFFE62
:10BFD0000FFFFFFFFFFFFFFFFFFFFFFFFFFFFFFC64
:10BFE00007FFFFFFFFFFFFFFFFFFFFFFFFFFFFF860
:10BFF00003FFFFFFFFFFFFFFFFFFFFFFFFFFFFF05C