:1080000065D05FEA437862D50A68920603D40A68AD
:1080100022F004020A60DFF8F0814FF48062016808
:1080200008F1140813011402414524D9A9420DD0C6
:10803000B1420FD0B9421AD0614515D0494515D08B
:10804000514501D1120312E0594501D104220EE03D
:10805000714501D140220AE06D4D1435A94206D088
:108060006B4A2832914201D11A4600E02246674904
:10807000091F0A6029E0A94213D0B14215D0B942C4
:1080800020D061451BD049451BD0514502D14FF44A
:10809000800217E0414502D14FF0806212E059455D
:1080A00001D104220EE0714501D140220AE0584D71
:1080B0001435A94206D0564A2832914201D11A46B7
:1080C00000E022464B4908394A60C16A71E04FF02E
:1080D000020808FA04F818EA020F70D05FEA837801
:1080E0006DD50A68920606D40A6822F00A020A6070
:1080F000012180F82110DFF810814FF4007201682F
:1081000008F1140813011402414524D9A9420DD0E5
:10811000B1420FD0B9421AD0614515D0494515D0AA
:10812000514501D1120312E0594501D102220EE05E
:10813000714501D120220AE0354D1435A94206D0FF
:10814000334A2832914201D11A4600E022462F4993
:10815000091F0A6029E0A94213D0B14215D0B942E3
:1081600020D061451BD049451BD0514502D14FF469
:10817000001217E0414502D14FF0007212E059455C
:1081800001D102220EE0714501D120220AE0204DEA
:108190001435A94206D01E4A2832914201D11A460E
:1081A00000E02246134908394A60002180F8201077
:1081B000816A00291CD0BDE8F05F0847FFE7082569
:1081C000A540154214D01A0712D50A6822F00E02F3
:1081D0000A6090F84020C36B012101FA02F25A6054
:1081E000816380F82110002180F82010016BE0E706
:1081F000BDE8F09F080002401C0002403000024031
:1082000044000240580002406C0002400804024052
:108210001C04024070B5044600F080FA0546601C5C
:1082200002D004480078044400F078FA401BA042D1
:10823000FAD370BD5C0300202DE9F04705462648BF
:108240000F460126017E01290FD0012181460176CA
:108250002868DFF888804CF25034022808D0A24603
:108260002046FFF7A5FBA8B131E00220BDE8F0876A
:108270002046FFF79DFB08BB0120FFF72DFB2046A2
:10828000FFF796FBD8F81010064621F00401C8F855
:1082900010101CE04FF0FF303860AC6811E0204651
:1082A000FFF738FB5046FFF783FBD8F810100600A5
:1082B00021F00201C8F8101001D03C6007E004F57D
:1082C0000064D5E9020100EBC120A042E7D80021FB
:1082D00089F818103046C9E7F074002000200240E9
:1082E00070B50446064D07202060286AA060FFF79D
:1082F00005FB2074E869C0F38200607470BD000063
:10830000002002400148C06970470000F07400205E
:108310000348016941F080010161002070470000BD
:10832000002002400348016921F40071016100202E
:10833000704700000020024005480169890505D406
:108340000449816004498160002070470120704722
:108350000020024023016745AB89EFCD2DE9F05F96
:1083600007461C4888460024017E15461E46012902
:1083700009D00121814601764CF2503A5046FFF770
:1083800017FB18B122E00220BDE8F09F012F02D0B8
:10839000022F00D00427D346DFF83CA02201284654
:1083A0003146FDF7E3FE81B208EB4400FFF7C4FA63
:1083B0005846FFF7FDFADAF8102022F00102CAF859
:1083C000102018B9641CE4B2BC42E7D3002289F83B
:1083D0001820D9E7F0740020002002400649002050
:1083E0000A69120607D5054A4A60054A4A600969C2
:1083F000090600D50120704700200240230167458F
:10840000AB89EFCD2DE9F04300230F24DFF8D4C072
:1084100063E001229A400A405ED0FF2A01D8074655
:1084200001E000F104074FEA830601D9A6F1200616
:10843000D7F8008004FA06F54FF0040928EA050889
:1084400009FA06F948EA0908C7F80080C56825EA6C
:108450000205C56023F003056544AF684FEA8376E3
:108460004FEA167604FA06F909EA07081E4FB842E1
:1084700001D1002719E01D4FB84201D1012714E0B6
:108480001B4FB84201D102270FE01A4FB84201D169
:1084900003270AE0184FB84201D1042705E0174F1F
:1084A000B84201D1052700E00627B740474513D160
:1084B000AF6827EA0907AF60114D2E6896432E601A
:1084C0002D1D2E6896432E602D1D2E6896432E601E
:1084D0002D1D2E6896432E605B1C31FA03F298D155
:1084E000BDE8F0830000014000080140000C01409D
:1084F000001001400014014000180140001C014020
:10850000000401400FF0DEBD044910B50A680242C4
:1085100002D00860FFF7F6FF10BD00001404014010
:108520002DE9F84FDFF8B8A100220AF1040B144638
:1085300001274FF00F090BF1040E00BF0B6807FA7B
:1085400004F52B40AB4274D1DFF898C14E68A6EB1E
:108550000C0866452BD00DDC032E34D005DC36B379
:10856000012E19D0022E2FD11BE0112E16D0122E63
:108570002AD119E0B8F5881F19D006DCB8F5803F7C
:1085800015D0B8F5801F1FD111E0B8F5001F0ED02F
:10859000B8F5041F18D10AE0CA6815E0CA68121DB0
:1085A00012E0CA6808320FE0CA680C320CE08A6830
:1085B0002AB1012A4FF0080203D0456104E00422E9
:1085C00002E0056100E00022FF2B01D8064601E031
:1085D00000F104064FEA840501D9A5F12005D6F87B
:1085E00000C009FA05F82CEA080C02FA05F54CEA75
:1085F000050CC6F800C04D68ED006AD53A4DAE696D
:1086000046F00106AE61AD6924F0030605F00105F0
:108610000095364D06EB050CDCF80850A6074FEA2E
:10862000167809FA08F6B543314EB04202D1002659
:108630001AE04EE02F4EB04201D1012614E02E4E3A
:10864000B04201D102260FE02C4EB04201D10326E8
:108650000AE02B4EB04201D1042605E0294EB0427B
:1086600001D1052600E0062606FA08F62E43CCF8CE
:1086700008604D68DAF80060ED03554601D51E43E9
:1086800000E09E432E604D68AD0305D5DBF8006029
:108690001E43CBF8006004E0DBF800509D43CBF8AC
:1086A00000504D68DEF80060ED02754601D51E43AE
:1086B00000E09E432E604D68AD0205D5084D0C3597
:1086C0002E681E432E6004E0054E0C3635689D432F
:1086D0003560641C102CFFF431AFBDE8F88F00004A
:1086E0000004014000001110001002400000014091
:1086F00000080140000C014000100140001401403E
:1087000000180140001C01408068084000D0012092
:1087100070470AB1016170470904FBE701488068AE
:10872000704700005C03002070B5040011D0216880
:108730004CF6CC400860216845F255500860D4E9F9
:10874000000141602168A0688860FFF7E7FF0546E7
:1087500009E0012070BD00BFFFF7E0FF401B30289B
:1087600001D9032070BD2068C0680028F4D12168B9
:108770004AF6AA200860002070BD00684AF6AA21C7
:1087800001600020704700000248816802781144AF
:10879000816070475C030020074810B5016841F014
:1087A00010010160032000F069F80F2000F006F8C6
:1087B00000F024F8002010BD0020024070B50D4DDF
:1087C00004464FF47A712878B1FBF0F00A49096841
:1087D000B1FBF0F000F09DFF48B9102C07D2002249
:1087E0002146501E00F02AF800206C6070BD012068
:1087F00070BD00005C0300200000002070470028CE
:108800000DDB00F01F02012191404009800000F1C2
:10881000E020C0F88011BFF34F8FBFF36F8F704718
:10882000002809DB00F01F0201219140400980006F
:1088300000F1E020C0F8001170470000F0B40E4BCA
:108840001B680C46C3F30223C3F10705042D00D9AE
:108850000425191D072901D2002300E0DB1E012693
:1088600006FA05F1491E214099409E40761E1640A9
:108870003143F0BC03F08EBB0CED00E0064900F084
:10888000070208684FF6FF03184040EA0220034A37
:1088900010430860704700000CED00E00000FA058E
:1088A000014901200862704700000E4210B52CA457
:1088B00001461DCC86B08DE81D002DA02D4C006812
:1088C0000490002004292FD00BDC01292FD002298D
:1088D00028D100F091F96168C1F38131491C490048
:1088E0001EE0082920D010291CD161682268D2011D
:1088F00018D5C1F38342C9031DF8020009D5616888
:1089000004AAC1F34041515C1B4AB2FBF1F1484358
:1089100001E01A4948436168490203D44000032139
:10892000B0FBF1F006B010BD00F076F9FAE7226A6C
:10893000C2F30121012903D1920701D5C803F1E750
:10894000022905D1626A920702D549F64040E9E75B
:108950000329E7D121688903E4D54FF22440E1E7F8
:1089600002030405060708090A0B0C0D0E0F101070
:10897000010200000010024000127A0000093D00D0
:108980002DE9F84305460078354CC00754D0E0691E
:108990000026C00008D4E06940F08050E061E06942
:1089A000012600F0805000902E480168C90512D4BD
:1089B0000168804641F480710160FFF7AFFE074611
:1089C00005E000BFFFF7AAFEC01B642823D8D8F833
:1089D0000000C005F6D5206A10F4407021D0A988A7
:1089E00001F4407181421CD0206A1F49012220F409
:1089F00040700A6000220A602062C00711D0FFF7B1
:108A00008DFE074641F2883808E000BFFFF786FE7A
:108A1000C11B414502D90320BDE8F883206A8007C5
:108A2000F4D5206A696820F44070084320621EB1C2
:108A3000E06920F08050E0612878800705D5606803
:108A4000A96820F44040084360602878C00605D536
:108A50006068696920F48000084360600020DBE7FB
:108A60000010024000700040400442422DE9F047EF
:108A7000DFF8548105460E46D8F8000000F00700E4
:108A8000B0420CD2D8F8001021F007013143C8F8E9
:108A90000010D8F8000000F00700B0426FD128683D
:108AA0004A4C810712D5400703D5606840F4E06066
:108AB00060602878000703D5606840F4605060600B
:108AC0006068A96820F0F000084360602878C0075B
:108AD00044D06868012816D02168022816D089077A
:108AE00000294CDA616821F0030101436160FFF75E
:108AF00015FE6968074641F2883001290ED0022927
:108B0000814618D026E021688903E9E78901E7E773
:108B1000FFF704FEC11B494501D918E08146606892
:108B2000C0F381000128F3D118E000BFFFF7F6FD84
:108B3000C11B49450BD86068C0F381000228F5D1FC
:108B40000CE000BFFFF7EAFDC11B494502D9032035
:108B5000BDE8F087606810F00C0FF3D1D8F8001072
:108B6000404601F00701B1420BD9016821F007012D
:108B700031430160006800F00700B04201D00120DD
:108B8000E6E72878400705D56068E96820F4E060EA
:108B9000084360602878000706D56068296920F4DA
:108BA000605040EAC100606000F036F86168084A31
:108BB000C1F30311515CC840064908600F20FFF75C
:108BC000FDFD0020C4E7000000200240001002402C
:108BD000F8B701080000002004480549006849680A
:108BE000044AC1F30221515CC840704700000020D4
:108BF0000010024008B801080448054900684968A7
:108C0000044AC1F3C221515CC840704700000020F3
:108C10000010024008B8010812A185B00FC98DE804
:108C20000F0014A0144A006804905168134801F022
:108C30000C03042B10D0082B0ED1C1F38343C903BE
:108C40001DF803000AD5516804AAC1F34041515CE4
:108C50000A4A5043B0FBF1F005B070470849484359
:108C6000FAE7000002030405060708090A0B0C0DC9
:108C70000E0F1010010200000010024000127A00D6
:108C800000093D002DE9F84F04460078B94DC007B2
:108C900048D06868C0F38100012807D06868C0F335
:108CA0008100022809D16868C00306D528688003BE
:108CB00038D5606800286FD034E06068B0F5803F38
:108CC0000BD010B1B0F5A02F11D0286820F480305F
:108CD0002860286820F4802002E0286840F4803072
:108CE0002860606888B1FFF719FD064609E028682A
:108CF00040F480202860F0E7FFF710FD801B642817
:108D000075D828688003F7D50CE0FFF707FD064605
:108D100005E000BFFFF702FD801B6428F0D828683B
:108D20008003F7D42078944E80074FF001094FF06C
:108D300000083BD5686810F00C0F07D06868C0F3D6
:108D40008100022809D16868C00306D4286880071A
:108D500014D5206901281FD110E02069B0B1C6F8F0
:108D60000090FFF7DBFC074605E000BFFFF7D6FCED
:108D7000C01B0228C4D828688007F7D52868616915
:108D800020F0F80040EAC10028600FE0C6F800803B
:108D9000FFF7C4FC074606E0E9E000BFFFF7BEFCB2
:108DA000C01B022823D828688007F7D42078000742
:108DB0002CD57248A169D9B1C0F80090FFF7AEFC7C
:108DC000074604E0FFF7AAFCC01B02280FD8686A18
:108DD0008007F7D56A484FF4FA510068B0FBF1F00C
:108DE000009000BF0098411E0091FAD20EE080E092
:108DF000C0F80080FFF792FC074604E0FFF78EFC06
:108E0000C01B022875D8686A8007F7D4207840070D
:108E100060D5E8690027C00008D4E86940F08050B8
:108E2000E861E869012700F080500090554801682A
:108E3000C90513D40168834641F480710160FFF7CE
:108E40006DFC824606E000BFFFF768FCA0EB0A005D
:108E500064284ED8DBF80000C005F5D5E06801288D
:108E60000AD008B1052813D0286A20F00100286232
:108E7000286A20F0040002E0286A40F0010028621D
:108E8000E06841F2883B98B1FFF748FC82460BE06E
:108E9000286A40F004002862EEE700BFFFF73EFCBE
:108EA000A0EB0A0159455AD8286A8007F6D50CE08C
:108EB000FFF734FC824605E0FFF730FCA0EB0A0127
:108EC00059454CD8286A8007F6D41FB1E86920F0CC
:108ED0008050E861E06988B36968C1F381010229C3
:108EE00045D00228C6F8608004D0FFF717FC04467E
:108EF00038E034E0FFF712FC074604E0FFF70EFC11
:108F0000C01B02282BD828688001F7D4206AB0F54E
:108F1000803F05D16868A16820F40030084368608C
:108F2000D4E908010843696821F4741108436860B2
:108F3000C6F86090FFF7F2FB044606E015E000BFBC
:108F4000FFF7ECFB001B022809D828688001F7D541
:108F50000BE000BFFFF7E2FB001B022802D9032051
:108F6000BDE8F88F28688001F4D40020F8E70120DC
:108F7000F6E7000000100240000042428004424236
:108F80000000002000700040024850F8210080B22C
:108F900070470000006C0040024800EB810091B275
:108FA00001607047006C0040F8B505004FF000000C
:108FB00016460C46009006D02CB100226946284681
:108FC00000F019F808B10120F8BD287B2070E87B7B
:108FD000E070697B6170A97BA17056B101F05BFE06
:108FE000E070607801F057FE6070A07801F053FEE9
:108FF000A0700020F8BD2DE9F04791460C465FEACD
:1090000000084AD084B3D8F800004068400744D430
:10901000404601F025FF4FF461620546B0FBF2F1D6
:10902000B0FBF2F302FB13503C23B0FBF3F0B5FBB3
:10903000F2F6607002FB1650B0FBF3F203FB120075
:10904000A070182931D31820B1FBF0F7B1FBF0F272
:1090500000FB12102070404601F0FBFE411C04D0C2
:10906000A84202D9461B02E017E04FF0FF36A7EBFB
:10907000071000EB4000C0EB001005EBC0152946BF
:10908000404601F03CFF40B9701C01D0711900E06E
:109090003146404601F01FFF10B10120BDE8F087C6
:1090A0003946404601F048FE00E02170B9F1000F5A
:1090B0000BD0207801F0EFFD2070607801F0EBFD1F
:1090C0006070A07801F0E7FDA0700020E6E70000E6
:1090D00070B5040003D0607C002610B105E00120CB
:1090E00070BD2674204600F043F8022060742046CC
:1090F00000F022F9042578BB204601F074FE58BB2D
:109100002068416821F007014160A06820B117483C
:10911000016821F0010101601448001F0168A26884
:1091200021F46071114301606068411C04D1012089
:10913000FFF7BCFB80B1401E21688A6822F00F0255
:1091400042EA10428A602168CA6860F30F02CA606E
:10915000204601F063FE08B16574C0E7E6730120A4
:109160006073A0736074002070BD0000306C00401C
:1091700010B5134C92B0E06940F08050E061E069B6
:1091800000F080501090FFF78BFBE06940F000602A
:10919000E061E069012400F000601090042000907C
:1091A0000020079003946846FFF76CFD2002CDE98C
:1091B0000A400AA8FFF7E4FB0248046012B010BDA1
:1091C000001002403C0442422DE9F0410D460400EB
:1091D0003BD0C5B3207C01283AD04FF0010884F879
:1091E000108002206074E87872B301F04BFDE073E8
:1091F000687801F047FD6073A87801F043FDA07323
:10920000C2B2617BE07B01F03BFE207328702046F8
:1092100001F026FE4FF46161B0FBF1F10025182941
:109220002DD91822B1FBF2F1A1EB011101EB4101A3
:10923000C1EB011100EBC1163146204601F05FFE83
:109240000427C8B90BE000E004E00120BDE8F0818C
:109250000220FBE7E07368786073A878CFE72046C8
:1092600001F0F7FD411C0AD0B04208D20649014482
:10927000204601F030FE10B167742574E5E784F8EC
:10928000118025740020E1E7805101002DE9F041B3
:109290000D46040024D01DB3207C012823D04FF0BC
:1092A000010884F81080022060742878EAB101F087
:1092B000E9FC4FF4616100FB01F6687801F0E2FC23
:1092C000C0EB001006EB8006A87801F0DBFC351837
:1092D0002946204601F013FE0026042710BB0FE0AC
:1092E0000120BDE8F0810220FBE74FF461614843B3
:1092F0006978C1EB011100EB8100A9784518E7E717
:109300002068416821F005014160204601F0A1FD7F
:10931000411C0AD0A84208D206490144204601F067
:10932000DAFD10B167742674DAE784F811802674C8
:109330000020D6E78051010070B504000AD02068F3
:10934000416821F008014160FFF7E8F905464FF454
:109350007A7608E0012070BDFFF7E0F9401BB042CB
:1093600001D9032070BD206840680007F4D50020B3
:1093700070BD704738B504460068426881684B0686
:1093800005D4CB0703D0530601D5216C04E08B072D
:1093900007D5130605D5616C01B02046BDE8304005
:1093A000084711F0600F3FD093063DD54B060AD514
:1093B00094F85130032B34D0636D43F0040363659C
:1093C000C36883680093890609D5616D41F0010186
:1093D000616581680091016821F040010160606D64
:1093E000002821D02068416821F0E001416001207F
:1093F00084F85100900718D02068416821F00301DB
:1094000041600C4DE06C18B14563E06CFEF746FD21
:10941000A06C002808D04563A06CBDE83840FEF77A
:109420003DBDC1688068009038BD2046FFF7A1FFB0
:1094300038BD0000B9B5000870B5040004D094F838
:109440005100002510B106E0012070BD84F8505095
:10945000204600F037F8022084F8510020680168A7
:1094600021F040010160D4E901010843D4E903126D
:109470001143084361690843218B01F400710843DB
:10948000E1690843216A0843A16A0843216808602A
:10949000A069042101EA1040616A0843216848601C
:1094A000A06AB0F5005F02D12168E06A0861206817
:1094B000C16921F40061C1616565012084F8510032
:1094C000002070BD70B5274A016827480224032593
:1094D00086B091421FD1816941F4805181618169D7
:1094E00001F480510491816941F004018161806936
:1094F0001E4E00F004000490012280213046FFF748
:1095000008F9A020CDE90004694603953046FFF72D
:1095100007F806B070BD164A9142FAD1C16941F40C
:109520008041C161C16901F480410491816941F0C8
:10953000080181618069694600F00800049090008C
:10954000CDE900040020CDE902050A48FEF7E8FF56
:10955000002211462420FFF771F92420FFF760F95B
:10956000D7E7000000300140001002400008014031
:1095700000380040000C01402DE9F84F044690F8F7
:1095800050000026994617460D4601280DD04FF091
:10959000010B84F850B0FFF7C1F8804694F85100F1
:1095A000B246012804D00226ADE00220BDE8F88FC3
:1095B000002D72D0002F70D0032084F85100C4F821
:1095C00054A02563A786E786C4F838A0A4F83CA079
:1095D000A4F83EA0C4F844A0C4F840A0A068B0F528
:1095E000004F04D12068016841F480410160A06A05
:1095F0004FF40057B8420AD1206802684DF6FF7157
:109600000A4002602068016841F40051016020684E
:109610000168490603D4016841F040010160E06837
:10962000B0F5006F606804D038B3E08E012824D014
:1096300040E010B1E08E01281BD1216835F8020B03
:10964000C86006E020688168890706D535F8021BE6
:10965000C160E08E401EE0860BE0B9F1000F35D00E
:10966000B9F1FF3F05D0FFF759F8A0EB08014945D4
:109670002CD2E08E0028E5D11FE0216815F8010BFF
:10968000087306E020688168890707D515F8011B73
:109690000173E08E401EE0860CE033E0B9F1000F6C
:1096A00014D0B9F1FF3F05D0FFF738F8A0EB08015F
:1096B00049450BD2E08E0028E4D14B46012202211D
:1096C0002046CDF8008001F07FFF08B103261AE0A4
:1096D00042464946204601F05FFF18B1012620208E
:1096E000606510E0A06818B92068C16880680090C3
:1096F000A06AB84204D12068016841F48051016039
:10970000606D00B1012684F851B084F850A0304655
:109710004CE710B5401EB0F1807F01D3012010BD91
:109720004FF0E02460610F21601702F033FC00204D
:10973000A06107202061002010BD7047704730B540
:1097400090F83C20012A20D0012280F83C200223FE
:1097500080F83D3003685C6824F070045C60036846
:109760005C680D682C435C6003689C6824F080048E
:109770009C6003689C6849680C439C6080F83D20AD
:10978000002180F83C10084630BD022030BD10B5E5
:10979000040003D094F83D0010B107E0012010BD93
:1097A000002084F83C00204600F00CF8022084F8E9
:1097B0003D00211D206801F0F9FF012084F83D00E3
:1097C000002010BD08B500680B49884212D10B4833
:1097D000C16941F02001C161C069002200F0200090
:1097E000009011463720FFF729F8BDE808403720E0
:1097F000FFF716B808BD000000140040001002403A
:109800000168CA6842F00102CA600068016841F05C
:1098100001010160002070470168CA6822F001025E
:10982000CA600068016A41F21112114207D1016A4F
:109830009210114203D1016821F001010160002062
:109840007047704770B50446006801694FF0000525
:10985000C943890715D4C168C943890711D4E91ED2
:10986000016101202077206880698007204602D0AE
:10987000FFF7E7FF04E000F098F8204600F096F8C4
:10988000257720680169C943490717D4C168C943CE
:10989000490713D46FF0040101610220207720688A
:1098A000806910F4407F204602D0FFF7CAFF04E031
:1098B00000F07BF8204600F079F8257720680169F0
:1098C000C943090716D4C168C943090712D46FF008
:1098D00008010161042020772068C06980072046C4
:1098E00002D0FFF7AEFF04E000F05FF8204600F082
:1098F0005DF8257720680169C943C90617D4C16896
:10990000C943C90613D46FF0100101610820207704
:109910002068C06910F4407F204602D0FFF791FF15
:1099200004E000F042F8204600F040F82577206877
:109930000169C943C90708D1C168C943C90704D12E
:10994000891E0161204600F032F820680169C94390
:10995000090609D4C168C943090605D46FF080011E
:1099600001612046FFF7E9FE20680169C943490605
:1099700009D4C168C943490605D46FF040010161AB
:10998000204600F016F820680169C94389060BD407
:10999000C168C943890607D46FF0200101612046E0
:1099A000BDE87040FFF7CABE70BD704770470EF04B
:1099B0007FBC704710B504000ED0242084F8390015
:1099C000204600F0C7F80020E06384F8390084F8EE
:1099D0003A0084F8380010BD012010BD7047000027
:1099E00070B5026804461068D168536910F00F0F13
:1099F00050D003F0010501F4907635435DD0C207E5
:109A000005D0CA0503D5E26B42F00102E2634207CA
:109A100005D5DA0703D0E26B42F00202E263820767
:109A200005D5DA0703D0E26B42F00402E2630207D5
:109A300005D5DA0703D0E26B42F00802E263E26B7D
:109A4000002A33D0800604D5880602D5204601F0CE
:109A5000B1FF20684069E16BC0F38010090700D4B2
:109A600028B3204601F098FF2068416949061AD5BD
:109A7000416921F040014161606BA0B11B49416324
:109A8000606BFEF70BFA002810D0606B416BBDE8ED
:109A900070400847830610D58B060ED52046BDE8DA
:109AA000704001F087BF2046FFF798FF70BD204649
:109AB000FFF794FF0020E06370BD030606D50B0698
:109AC00004D52046BDE8704002F078B84006F3D5D2
:109AD0004806F1D5D168204621F04001D16020210F
:109AE00084F8391000F0B1F970BD000089B90008A0
:109AF00070B5040004D094F83900002510B106E0D8
:109B0000012070BD84F83850204600F079F82420F8
:109B100084F839002068C16821F40051C1602046F2
:109B200001F094FF2068016921F4904101612068EF
:109B3000416921F02A0141612068C16841F4005166
:109B4000C160E563202084F8390084F83A000020E1
:109B500070BD000070B524490068244A244C0D15DE
:109B6000884211D1D06840F48040D060D06820F4A1
:109B70008040D06049152046FEF744FC2946204627
:109B8000FEF740FC252029E01A49884211D11069CE
:109B900040F400301061106920F40030106104219D
:109BA0002046FEF72FFC08212046FEF72BFC26203E
:109BB00014E01149884215D1106940F480201061E9
:109BC000106920F4802010610C4C29462046FEF7D5
:109BD00019FCE1142046FEF715FC2720BDE8704073
:109BE000FEF70DBE70BD00000038014000100240BD
:109BF000000801400044004000480040000C0140C3
:109C0000F0B506683A48394F0024022101220323A7
:109C1000051585B0BE4233D1866946F004068661DB
:109C2000866906F004060496866946F00406866195
:109C3000866906F004060496866946F480468661C5
:109C400080690E0200F4804001AF0096049087E81E
:109C50000E00284F69463846FEF762FC0122314665
:109C60003846FEF756FDCDE9005469463846FEF702
:109C700057FC002204212520FEF7E0FD252030E0DE
:109C80001D4FBE422FD1866946F00806866186695F
:109C900006F008060496866946F00806866186691D
:109CA00006F008060496C66946F48026C661C069B7
:109CB000009500F4802001AE049086E80E000F4D60
:109CC00069462846FEF72CFCE814CDE900046946F5
:109CD0002846FEF725FC002203212720FEF7AEFDD3
:109CE0002720FEF79DFD05B0F0BD000000380140C3
:109CF000001002400008014000480040000C0140F4
:109D000090F83A30202B22D1F9B1F2B190F83830E6
:109D1000012B1CD081628285C2850021C163222271
:109D200080F83A2080F838100168CA6842F48072DE
:109D3000CA6001684A6942F001024A610068C1686C
:109D400041F02001C16000207047012070470220CF
:109D50007047000000680849884203D18022074903
:109D6000074806E00749884205D141F664120649D2
:109D70000648FFF7C5BF7047003801403473002024
:109D8000F472002000480040A00C0020600C00206D
:109D90002DE9F843044690F839001F4616460D4653
:109DA000202850D1A5B19EB194F8380001284AD09E
:109DB000012084F838004FF00008C4F83C802120CE
:109DC00084F83900FEF7AAFCA6848146E68426E0E2
:109DD0000120BDE8F883E08C401EE084A0684B467B
:109DE000B0F5805F4FF000024FF0800120460097F1
:109DF00003D001F014FFE8B90DE001F010FFC8B97D
:109E000028882168C0F308004860206908B16D1CEB
:109E100005E0AD1C03E0216815F8010B4860E08CFB
:109E20000028D8D14B46002240212046009701F05F
:109E3000F6FE08B10320CCE7202084F8390084F82E
:109E400038800020C5E70220C3E77047FEE7000026
:109E50000548044901600621416040F6FF718160B8
:109E6000FEF762BC00300040C47200200148FEF7DB
:109E700084BC0000C47200207047000010B5174871
:109E800086B0154901604FF4827141600021816004
:109E9000C160012462020161C0E905423822C0E9C3
:109EA0000721416281620A21C162FFF7C5FA0C48AD
:109EB000816941F0080181618069694600F008000C
:109EC00004902003CDE900040320CDE902400548B9
:109ED000FEF726FB06B010BD00380040FC6E0020E7
:109EE00000100240000C0140044908B54A690243D1
:109EF0004A6149690140009108BD0000001002401C
:109F0000044908B58A6902438A6189690140009160
:109F100008BD000000100240F0B50A68C2F30F252A
:109F200095FAA5F2B2FA82F369E001229A402A4238
:109F300064D0082B03D240F201129A4006E0A3F14C
:109F400008024FF00114944044F0806292FAA2F7A4
:109F500000EB1264B7FA87F74FEA870C0F272668E1
:109F600007FA0CF7BE4392FAA2F7D1F804E0B7FA69
:109F700087F7BF000EFA07FE46EA0E0626600E6956
:109F8000C7684FEA122C9CFAACFCBCFA8CFC27EA9E
:109F9000122706FA0CF63743C7604E68012E01D02F
:109FA000092E2BD192FAA2F7B7FA87F74FEA870C5E
:109FB000032707FA0CF72668D1F808E0BE4392FAA7
:109FC000A2F7B7FA87F7BF000EFA07FE92FAA2FCD3
:109FD00046EA0E06BCFA8CFC4FEA8C0E4FF0040CDD
:109FE00026600CFA0EFC92FAA2F2B2FA82F2CF6864
:109FF000920026EA0C0697403E4326605B1C35FA29