:10A0000003F292D10120F0BD00B5034600F00AFE34
:10A01000186000F0DDFD586000F0E8FD98605868B9
:10A0200000F0F2FDD86000BD2DE9FF410446C06894
:10A030000D460026C0F34030002861D1E968686809
:10A04000E2680843296941F20C639A4311430843CB
:10A05000E060A868216921F44051014321616869E9
:10A06000616921F44071014361616846FFF7CCFFEB
:10A070002548844201D103980CE02448844208D04A
:10A080002348844205D02348844202D02248844297
:10A0900036D10298A0B32A6892B300EBC00101EB5D
:10A0A00000119200B1FBF2F36420B3FBF0F36FF008
:10A0B00018077B43B1FBF2F5B1FBF2F705EB830523
:10A0C000322303EB0515B5FBF0F5B7FBF0F705F010
:10A0D000F00505EB0715B1FBF2F7B1FBF2F1B1FBAF
:10A0E000F0F101266FF01802514307EB810103EBF9
:10A0F0000111B1FBF0F000F00F00284480B2A06025
:10A1000004B03046BDE8F081003801400044004012
:10A1100000480040004C0040005000400A2801D296
:10A1200001207047642801D202207047B0F57A7F81
:10A1300001D20320704742F21071884201D20420FC
:10A1400070470B49884201D205207047094988426F
:10A1500001D2062070470849884201D20720704783
:10A160000649884201D2082070470020704700004D
:10A17000A086010040420F008096980000E1F5059E
:10A1800030B50F4885B0816941F040018161806937
:10A190004FF4004400F0400004900120CDE900405D
:10A1A00002900220074D039069462846FEF7B8F951
:10A1B000012221462846FEF7ACFA05B030BD00006A
:10A1C0000010024000180140F0B5234B1A78FAB194
:10A1D00000261E700E80D3E90224204D121D2C444F
:10A1E00014F8014CA2581D6992B2C2F180021C4CB5
:10A1F000AA422BD00ED9ADB2954227D2B1F800C0F9
:10A20000675D00F80C700F887F1C0F806D1CF2E7F3
:10A210000020F0BDADB2802D09D2B1F800C0675D5D
:10A2200000F80C700F887F1C0F806D1CF2E76AB17C
:10A23000002509E0B1F800C0675D00F80C700F88D8
:10A240007F1C6D1C0F80ADB29542F3D31A61802A3A
:10A2500000D11E610120F0BD70030020563C0208B1
:10A260001C7B00202DE9FF4FDFF8B0828FB0054640
:10A27000C8F80400AA48DFF8AC921C460F464FF01D
:10A28000030A85420BD14FF48040FFF739FE0120CD
:10A29000FFF72AFE25260521C8F8089012E0A248FB
:10A2A000854212D1A148C16941F40031C161C06940
:10A2B00000F4003000900120FFF716FE262606214C
:10A2C000C8F80890C8F80C101DE0994885420AD1DA
:10A2D0004FF48020FFF714FE0120FFF705FE27262C
:10A2E000C8F808900DE0934885420CD14FF4002047
:10A2F000FFF706FE0220FFF7F7FD8F493426C8F866
:10A300000810C8F80CA0DFF83492DFF834B24F45DB
:10A3100001D1042016E05F4501D1082012E08948F0
:10A32000874201D110200DE08748874201D12020CB
:10A3300008E08648874201D1402003E084488742F4
:10A3400002D18020FFF7DCFD4C4501D1042016E04E
:10A350005C4501D1082012E07A48844201D11020E6
:10A360000DE07948844201D1202008E077488442FA
:10A3700001D1402003E07648844202D18020FFF7DB
:10A38000BFFD119809900920CDE90A0A4FF0000994
:10A3900009A9CDF830903846FFF7BEFD1C9809900A
:10A3A00004200A9009A92046FFF7B6FD4446694FEC
:10A3B000D4E90201394411F8012C815844F2100308
:10A3C00099438150D4E90201394411F8011C4258E3
:10A3D00022F440524250D4E90201394411F8011CE0
:10A3E000425842F020024250D4E90201394411F8A7
:10A3F000011C425822F040024250D4E90201394483
:10A4000011F8011C425842F080024250D4E9020186
:10A41000394411F8011C425822F440724250D4E9E8
:10A420000201394411F8011C425822F440624250A2
:10A43000D4E902123A44281D12F8012C0831505078
:10A44000D4E902023A440C3012F8012C424911506E
:10A45000D4E902013944001D11F8011C0A586FF3B8
:10A460000F0242F080020A501D9802901E9803903D
:10A470001F980490209805900C20CDE9060902A9A8
:10A480002846FFF7D1FD286920F4904028616869CB
:10A4900020F02A006861686940F040006861E8685F
:10A4A00040F01000E8602D480068C0F30220011D54
:10A4B000072901D2002000E0C01E012209FA00F1A4
:10A4C000002E06DB06F1E0204FEA011180F80014AF
:10A4D00007E04FEA011006F00F0101F1E02181F8D9
:10A4E000140D0BDB06F01F0002FA00F24FEA5610C3
:10A4F0004FEA800000F1E020C0F80021D4E9020119
:10A50000394411F8011C425842F001024250E868F7
:10A5100040F40050E86013B0BDE8F08F70030020F5
:10A52000003801400000024000440040001002409A
:10A5300000480040004C0040000402400008014078
:10A54000000C0140001001400014014000180140BF
:10A55000001C0140563C02081C7B00200CED00E072
:10A56000094908B54868C268C2F30012002A0AD037
:10A570000268C2F30012002A05D002680092406807
:10A5800000900120087008BD7003002030B50D4A0E
:10A59000002352680CE000BF30F81350C5F30805E3
:10A5A00055601468C4F3C014002CFAD05B1C9BB235
:10A5B0008B42F1D31068C0F380100028FAD000203D
:10A5C00030BD000070030020014900204870704732
:10A5D0000003002070B54F4C00256079D8B1608928
:10A5E000012806D0022807D003280AD004280BD15E
:10A5F0000CE0022060818AE04FF6FF700CF050FE04
:10A6000001E00CF0A3FF6089401CF3E70CF092FF1F
:10A61000657165817BE06078012658B1E089401C56
:10A62000E0813D483B49E278007889788AB3E5705B
:10A6300031B10BE0667025720CF07CFFE58166E0BD
:10A64000A67018B100210120FCF72AFD33480088CC
:10A6500001280FD00A223249022865700DD000F07F
:10A6600061F8032808D10878B2EB101F03D107283E
:10A6700037D000E06570032070BD0878092805D048
:10A68000B2EB101F06D12571062070BD2571012087
:10A6900070BD28E00921B1EB101F09D11D4900F060
:10A6A0000F00143151F82000206125710420EFE7DC
:10A6B0000821B1EB101F02D125710520E8E70B211D
:10A6C000B1EB101F02D125710720E1E70E21B1EB9C
:10A6D000101F02D125710820DAE7BDE8704000F0B4
:10A6E00021B81020D4E7E289052A10D9E5816570E8
:10A6F000084203D016210120FCF7D2FCA570207976
:10A70000401CC0B22071032801D925716671022056
:10A71000BEE700000003002031000020B800002048
:10A72000E00B00202A480078012829D0022829D0EF
:10A73000032829D0042845D0052827D0062827D06B
:10A74000072827D0082827D0092827D00A2827D06B
:10A750000B2827D00C2827D0212827D0222827D023
:10A76000232827D0242827D0262827D0272827D0D9
:10A77000282827D0292827D02A2827D00320704727
:10A780000A2070470B2070470C2070470E2070473E
:10A790000F2070471020704711207047122070471B
:10A7A00013207047142070471520704716207047FB
:10A7B0001720704718207047192070471A207047DB
:10A7C0001B2070470D2070471C2070471D207047CC
:10A7D000E00B002000B585B000204FF48051CDE99A
:10A7E000021004904FF4165240F60800CDE9000222
:10A7F000034942100B460348FFF734FD05B000BD86
:10A8000000080140004400402DE9F041334886B083
:10A81000816941F004018161816901F004010491C1
:10A82000816941F010018161816901F01001049199
:10A83000816941F0080181618069022500F008000A
:10A84000CDE9035010260124DFF89480CDE900649F
:10A8500069464046FDF764FE002210214046FDF7A0
:10A8600058FF204F00946946384603950194FDF740
:10A8700057FE002201213846FDF74BFFCDE9006469
:10A88000194E694603953046FDF74AFE0022102115
:10A890003046FDF73EFF20208DE8310069464046F6
:10A8A000FDF73EFE002220214046FDF732FF002248
:10A8B00010214046FDF72DFF002201213846FDF70B
:10A8C00028FF002210213046FDF723FF002210212F
:10A8D0004046FDF71EFF06B0BDE8F08100100240C3
:10A8E00000100140000C0140000801402DE9F04338
:10A8F000284885B0816941F004018161816901F0D6
:10A9000004010491816941F010018161816901F0C4
:10A9100010010491816941F0080181618069DFF8CB
:10A92000789000F008000490002210214846FDF7BE
:10A93000F0FE1A4F002201213846FDF7EAFEDFF84B
:10A940006080002210214046FDF7E3FE102601241E
:10A95000CDE900640225694648460395FDF7E0FD10
:10A9600000946946384603950194FDF7D9FDCDE979
:10A970000064694640460395FDF7D2FD2020009013
:10A9800000200190029069464846FDF7C9FD05B0D8
:10A99000BDE8F0830010024000100140000C0140AF
:10A9A000000801400C480B494FF4007201604FF45D
:10A9B0008271416000218160C1600161C0E90512BE
:10A9C0003022C0E90721416281620A21C162FEF79B
:10A9D00033BD000000300140C47A0020FEE770471C
:10A9E00030B500210A4AC3B20DE0002006E000BFE6
:10A9F00001FB040415682B55401C80B2548A844224
:10AA0000F6D8491C89B2908A8842EED830BD000041
:10AA1000AC7A002070B50022094B0DE0002106E061
:10AA200002FB04141E68055D3555491C89B25C8A19
:10AA30008C42F5D8521C92B2998A9142EED870BDE0
:10AA4000AC7A00202DE9F04F814624481C46884608
:10AA50008388099993464B4527D3C288424524D31E
:10AA6000012901D0002635E00025681E00EB4407CF
:10AA700019E009EB05000026A0EB040A0FE000BF77
:10AA8000BAF1000F0DD408EB0600001B09D481B207
:10AA90001FFA8AF05A4600F045F8761C36B2B742E3
:10AAA000EEDC6D1C2DB2AF42E3DCBDE8F08F00257B
:10AAB00009EB06077F1E09E008EB0500401E81B286
:10AAC000B8B25A4600F02EF86D1C2DB2A542F3DB49
:10AAD000761C36B2A642EADBE7E70000AC7A00203B
:10AAE00070B50C4C049E0025206021816281A681F6
:10AAF0004E074FEAD10000D0401C6082A282E38161
:10AB0000258223B1B42B02D0A280E18070BDA18048
:10AB1000E28070BDAC7A00200149086070470000F7
:10AB2000AC7A0020F8B5284CA388834247D3E38849
:10AB30008B4244D32346E7891E895D89CFB15A2FC2
:10AB40001AD0B42F1CD0B7F5877F38D10B46281AFE
:10AB5000401E80B2218AD9B1012916D0022904D021
:10AB600003292CD1F11A491E8BB2281A401E80B23B
:10AB70000EE003460846EDE7711A491E8BB2E9E77D
:10AB8000301A401E83B2681AE2E7F11A491E8BB2EE
:10AB90009E4214D3854212D3618A2468414301EB5B
:10ABA000D301605C8DF800008020002A03F00702CA
:10ABB00020FA02F09DF8002002D010436054F8BD46
:10ABC00082436254F8BD0000AC7A00207047000058
:10ABD00004494968044A01F0F0010909515CC84080
:10ABE0007047000000100240F8B7010804494968A6
:10ABF000044A01F4E06102EB11210978C840704772
:10AC00000010024008B8010804494968044A01F4E8
:10AC1000605102EBD1210978C84070470010024012
:10AC200008B801080648406810F00C01054805D036
:10AC3000042903D0082901D100F006B870470000AC
:10AC40000010024000127A000B48416811F4803273
:10AC50000A4909D0B2F5803F06D14168084AC1F3DC
:10AC60004041491CB2FBF1F14068022200F470102F
:10AC700002EB9040484370470010024000093D003D
:10AC800000127A00010901EB810100F00F0000EBD6
:10AC90004100C0B27047002102E00A38C0B2491C2E
:10ACA0000A28FAD2090740EA116070472DE9FC41F1
:10ACB0000F4601461E481646DDE9085402789846BC
:10ACC000012A01D102220270084607F0BAFA8DF873
:10ACD0000300384607F0B5FA8DF80100304607F05A
:10ACE000B0FA8DF8020004208DF8000001226946B8
:10ACF0001048FEF769FA404607F0A3FA8DF8040001
:10AD0000284607F09EFA8DF80500204607F099FACC
:10AD10008DF80600012201A90648FEF7B7FA43F2B2
:10AD2000F02201210348FEF737F9BDE8FC8100005D
:10AD300054030020B47300202DE9F041044600259F
:10AD4000C07B627BA37B42E0012A16D0032A14D089
:10AD5000052A12D0072A10D0082A0ED00A2A0CD0B1
:10AD60000C2A0AD0042A10D0062A0ED0092A0CD0A8
:10AD70000B2A0AD0022A0DD028E01F2B0CD30C2A54
:10AD800005D101221346401C20E01E2B04D30123D1
:10AD9000521C1BE01C2B02D203F1010316E011D15F
:10ADA00083B29E0710D16426B3FBF6F706FB173675
:10ADB00036B94FF4C876B3FBF6F706FB17331BB969
:10ADC0001D2303E01D2B01D1032201236D1C8D42A5
:10ADD000BAD3D1B2E0736173DAB2A27300F050F863
:10ADE0002073BDE8F08170B50446FDF797FC054679
:10ADF0004FF47A7606E0FDF791FC401BB04201D992
:10AE0000032070BD206840688006F4D52068416842
:10AE100041F010014160002070BD000070B5044693
:10AE20000068416821F010014160FDF777FC05469C
:10AE30004FF47A7607E000BFFDF770FC401BB0428C
:10AE400001D9032070BD206840688006F4D5002039
:10AE500070BD0168086A496A89B241EA00407047DA
:10AE6000006881698AB2C1698BB2816989B28A42FC
:10AE700003D0C06961F31F40704743EA0240704746
:10AE8000F0B56424C1EBC1030927A500072603EB35
:10AE900001130329B3FBF7F100F5FA6011440144F3
:10AEA0000AD2401EB0FBF4F201EB9001B0FBF5F0CA
:10AEB000891A0844001D08E0B0FBF4F201EB900190
:10AEC000B0FBF5F0891A0844801CB0FBF6F106FBD4
:10AED0001100C0B2F0BD70B50D4606460024FFF764
:10AEE00082FF48B93168280C08623168A8B248620C
:10AEF0003046FFF793FF00B10124204670BD70B5C6
:10AF00000D4606460024FFF76EFF48B93168280C4D
:10AF100088613168A8B2C8613046FFF77FFF00B191
:10AF20000124204670BD000070B5ADF52E7D0546AC
:10AF30000EF06CFB06460EF0C5FB04460EF0DAFB85
:10AF40000246234616A1A4A8009601F00FF801229C
:10AF5000A4A901A803F00BFBC0B90A2002F0BAFFB4
:10AF6000ACAB64228BA901A803F0A6FB04468BA816
:10AF7000FBF75EF92860BDF8B00238B134B90A2099
:10AF800002F0A8FF01A803F0E3FA18B100200DF5C4
:10AF90002E7D70BD0A2002F09DFF0120F7E7000022
:10AFA000526576656E75652F3230253032642530F6
:10AFB0003264253032642E74787400002DE9F04339
:10AFC0005D4C85B0A06940F48070A061A069012645
:10AFD00000F480700490042000900225CDE9016502
:10AFE000DFF85891694648460395FDF799FA002223
:10AFF00004214846FDF78DFBA06940F02000A061C8
:10B00000A069AF030097CDE9016500F02000CDE90C
:10B010000350DFF82C8169464046FDF781FA002293
:10B0200039464046FDF775FBA06940F02000A0615D
:10B03000A0696F030097CDE9016500F02000CDE91C
:10B04000035069464046FDF76BFA002239464046F8
:10B05000FDF75FFBA06940F48070A061A0690096D5
:10B06000CDE9016500F48070CDE90350694648469A
:10B07000FDF756FA002201214846FDF74AFBA06978
:10B0800040F48070A061A069CDE9005600F48070A2
:10B090000295CDE9035069464846FDF741FA002282
:10B0A00002214846FDF735FBA06940F04000A06151
:10B0B000A069DFF8908000F04000049080200090AC
:10B0C000CDE90165694640460395FDF729FA00225E
:10B0D00080214046FDF71DFBA06940F04000A061C3
:10B0E000A069A7150097CDE9016500F04000CDE902
:10B0F000035069464046FDF713FA002239464046A0
:10B10000FDF707FBA06940F04000A061A06964154D
:10B110000094CDE9016500F04000CDE90350694697
:10B120004046FDF7FDF9002221464046FDF7F1FAC1
:10B1300005B0BDE8F083000000100240002001408F
:10B1400000140140001801400FB470B5194DA878E3
:10B1500018B1002070BC5DF814FB174C9DF810006E
:10B160000DF11102207015A1601C00F0FFFE0DF121
:10B17000410212A104F1310000F0F8FEBDF8C20056
:10B1800024F8B20F0C4831AA0CA1B43000F0EEFE46
:10B190009DF8CC00A07208480DF1CD0207A1BD308A
:10B1A00000F0E4FE9DF8CD0284F80B020120A870A7
:10B1B000D0E70000C00000206826002025730000B2
:10B1C00030B5094C25786DB1084D056041F6641025
:10B1D0000880A08B1080E08B188000202070E07029
:10B1E000012030BD002030BDC0000020A00C002098
:10B1F0002DE9F04F724C8BB0E178062000264FF01D
:10B200000108082975D2DFE801F0049195979FA8FD
:10B21000BCD9A07800286CD06A4F6BA107F2BE257C
:10B22000387828707A1C681C00F0A0FEA5F28D22E8
:10B2300002F2BE2064A1834600F098FE37F8B20FF8
:10B24000A5F8B200A5F20A2202F2BE205EA1824653
:10B2500000F08CFEB87A85F8BC00A5F2012202F25B
:10B26000BE2059A1814600F081FE97F80B0285F8B7
:10B27000BD02B5F8B23005F1010248B153A15B48F7
:10B2800000F074FE95F8BC0020B1012808D103E05D
:10B2900057A1F4E75EA100E066A102A800F066FEF7
:10B2A000287810B101280BD103E06B1C5A466EA11F
:10B2B00002E06B1C5A4674A14C48643000F056FE04
:10B2C0005046FAF79FFF01280ED9484875A164300F
:10B2D000FAF780FF454851466430FAF77BFF434850
:10B2E00076A16430FAF776FF287818B1012815D1D5
:10B2F0000DE017E04846FAF785FF3C4ACDE9000922
:10B30000643202AB6EA1104600F030FE06E0374A10
:10B3100002AB643274A1104600F028FE84F803806A
:10B32000E681268200200BB0BDE8F08F0DF07EFE96
:10B330000120F8E70220F6E7E07070482671016806
:10B34000491C01600320EEE7E0706D4826716682BB
:10B350000168491C01600420E5E7A08A401C80B216
:10B36000A082142808D3A6826079072806D001F0AD
:10B37000A7FA6079401C60710520D4E76671E67019
:10B38000FAE722795F484FF4004172B1628A521C99
:10B3900092B26282282A0DD0B2F5AF7F03D36682C3
:10B3A00026710520E0700620BDE784F804806682DF
:10B3B000002200E00122FDF7ACF9F4E70720B2E734
:10B3C000C0000020682600202573000041542B4354
:10B3D00048545450534F5053453D222573222C2539
:10B3E000642C320D0A0D0A0D0A0D0A00E42B002010
:10B3F00041542B4348545450534F5053453D2225FC
:10B4000073222C25642C310D0A0D0A0D0A0D0A0039
:10B41000436F6E74656E742D747970653A20617037
:10B42000706C69636174696F6E2F6A736F6E0D0A59
:10B4300000000000436F6E74656E742D7479706542
:10B440003A206170706C69636174696F6E2F782D3A
:10B450007777772D666F726D2D75726C656E636F81
:10B460006465640D0A000000504F5354202573207A
:10B47000485454502F312E310D0A486F73743A20BE
:10B4800025730D0A0000000047455420257320480D
:10B490005454502F312E310D0A486F73743A2025C1
:10B4A000730D0A00417574686F72697A6174696F0F
:10B4B0006E3A204265617265722000000D0A00003C
:10B4C00025732573436F6E74656E742D4C656E67BE
:10B4D00074683A2025640D0A0D0A25730D0A0D0AB9
:10B4E0000D0A0D0A0D0A0000257325730D0A0D0AB9
:10B4F0000D0A0D0A0D0A0D0A00000000B000002020
:10B50000B40000200018014000B58DB041208DF836
:10B51000000054208DF8010045208DF802003020F5
:10B520008DF803000D208DF804008DF805006423CC
:10B53000062269460248FEF72BFC0DB000BD000054
:10B54000600C002030B50F4885B0816941F04001A2
:10B55000816180694FF4004400F0400004900120B4
:10B56000CDE9004002900220074D0390694628462D
:10B57000FCF7D6FF012221462846FDF7CAF805B0A0
:10B5800030BD000000100240001801400148FDF7E6
:10B59000F1BE0000FC6E002038B50B460092044658
:10B5A0000022802100F010F8002804D0606D40F0E7
:10B5B00020006065032038BD10B5406A0021C187B6
:10B5C000C186FDF7D6FE10BD2DE9F0411D46174698
:10B5D0000E460446DDF8188035E0681C33D02DB1E6
:10B5E000FDF79CF8A0EB0800A8422CD32068416826
:10B5F00021F0E00141606068B0F5827F0BD1A06866
:10B60000B0F5004F02D0B0F5806F04D1206801681A
:10B6100021F040010160A06AB0F5005F0AD1206806
:10B6200001684DF6FF72114001602068016841F425
:10B6300000510160012084F85100002084F850007E
:10B640000320BDE8F0812068806836EA000004D05D
:10B650000020B842C1D10020F3E70120F9E770478C
:10B660007FB501204FF40054CDE900400C4D02900D
:10B67000039069462846FCF753FF012221462846DD
:10B68000FDF747F860000090002001900220029032
:10B690000320039069462846FCF742FF7FBD000067
:10B6A0000018014010B5FDF76FF801F089FB0CF0B0
:10B6B00053FB0C490878401C08700B490878401C63
:10B6C00008700A48007818B109480168491C0160EF
:10B6D00008480078002803D007490888401C0880E3
:10B6E00010BD00001F0000202500002024000020C5
:10B6F00068000020F1010020F201002030B58FB079
:10B7000014210AA8FAF75BFD28216846FAF757FDCD
:10B710000120009000040024CDE901040225CDE9B8
:10B7200007504FF4E01009906846FDF7ABFA00B1FE
:10B73000FEE70F200A90CDE90B544FF48060CDE96D
:10B740000D0402210AA8FDF791F9002800D0FEE7B8
:10B750000FB030BD0D48016841F001010160416842
:10B760000B4A1140416001680A4A114001600168BA
:10B7700021F480210160416821F4FE0141604FF411
:10B780001F018160054904480860704700100240AD
:10B790000000FFF8FFFFF6FE0060000808ED00E083
:10B7A0000148FEF74FB80000546F0020F0B5026862
:10B7B0001C4B1D4D1D4E1E4F1E4C4FF0804C984291
:10B7C00009D0A04207D0604505D0A84203D0B042BE
:10B7D00001D0B84204D122F0700E4A6842EA0E024B
:10B7E000984209D0A04207D0604505D0A84203D0B6
:10B7F000B04201D0B84203D122F44075CA682A434E
:10B8000022F080054A692A4302608A68C2620A6897
:10B810008262984201D0A04201D1096901630121ED
:10B820004161F0BD002C01400004004000080040D0
:10B83000000C0040003401403EB50E480C49012484
:10B8400001608915C0E902144FF460214461C161AF
:10B85000002104614160FCF757F90A20CDE900049A
:10B860000320029069460348FCF7CCF83EBD000077
:10B8700000240140B463002010B504461348FCF7CF
:10B8800093FA0A211148FCF7F7F91048FCF7ECFA93
:10B890000E48FCF735F9FAF7DDFD0D494860014621
:10B8A0000C4881420FDAFAF722FDFAF7F1FD0A4A55
:10B8B0000A4BFAF760FDFAF7D2FDC0B220703228C9
:10B8C00001D8012010BD002010BD0000B46300208D
:10B8D0008801002000B03245F6285C8FC235314027
:10B8E000024800210181418170470000D8010020F9
:10B8F00010B51148FCF758FA0A210F48FCF7BCF9BB
:10B900000D48FCF7B1FA0C48FCF7FAF8FAF7A2FD7B
:10B910000A4CA168FAF799FCA0602178491CC9B2C9
:10B920002170142906D10649FAF7E7FC606000206F
:10B93000A060207010BD0000B463002088010020CA
:10B940000000A04110B504460B4841680B488142F5
:10B950000FDAFAF7CCFCFAF79BFD094A094BFAF724
:10B960000AFDFAF77CFD80B22080322801D8012040
:10B9700010BD002010BD00008801002000B032453D
:10B98000F6285C8FC235314010B5406A0021C18570
:10B99000C184FEF723F810BD0168CA6822F49072D2
:10B9A000CA6001684A6922F001024A61202180F8D8
:10B9B0003A10704710B590F83A10222901D00220B1
:10B9C00010BD8168B1F5805F11D00169002901685F
:10B9D0001FD0496801F07F03816A4A1C82620B70A4
:10B9E000C18D491E0904090CC18518D02BE00269DC
:10B9F000816A002A0268526805D0D2B20A80816A40
:10BA0000491C8162ECE7C2F308020A80816A891C42
:10BA1000F7E74A68816A4B1C83620A70E0E70168B5
:10BA2000CA6822F02002CA600168CA6822F48072E3
:10BA3000CA6001684A6922F001024A61202180F847
:10BA40003A10FEF787F9002010BD00002DE9F04103
:10BA5000044600680169E26821F440511143016124
:10BA60002169A0680843616908432168CA6841F2F6
:10BA70000C639A430243CA6020684169A26921F4B9
:10BA80004071114341614C49206864253226884247
:10BA90003CD1FDF7B1F800EBC00101EB001061688B
:10BAA0008900B0FBF1F7FDF7A7F800EBC00101EB4F
:10BAB00000106168B0468900B0FBF1F0B0FBF5F012
:10BAC0006FF01801484307EB800106EB0110B0FB53
:10BAD000F5F000F0F006FDF78FF800EBC00101EB88
:10BAE000001061688900B0FBF1F0B0FBF5F006EBE7
:10BAF0000016FDF781F800EBC00101EB0010616852
:10BB00008900B0FBF1F7FDF777F83BE0FDF764F84B
:10BB100000EBC00101EB001061688900B0FBF1F798
:10BB2000FDF75AF800EBC00101EB00106168B04668
:10BB30008900B0FBF1F0B0FBF5F06FF0180148435D
:10BB400007EB800106EB0110B0FBF5F000F0F0060A
:10BB5000FDF742F800EBC00101EB001061688900BD
:10BB6000B0FBF1F0B0FBF5F006EB0016FDF734F892
:10BB700000EBC00101EB001061688900B0FBF1F738
:10BB8000FDF72AF800EBC00101EB001061688900A5
:10BB9000B0FBF1F0B0FBF5F06FF01801484307EB94
:10BBA000800108EB0110B0FBF5F0216800F00F00F8
:10BBB00030448860BDE8F0810038014090F83910C9
:10BBC000212901D0022070478168B1F5805F016AA8
:10BBD0000BD04A1C0262026809785160C18C491E70
:10BBE0000904090CC1840ED017E009880268C1F36A
:10BBF0000801516001690029016A02D0491C0162F3
:10BC0000ECE7891CFBE70168CA6822F08002CA6081
:10BC10000068C16841F04001C160002070472DE913
:10BC2000F041984617460E460446069D1DE0681CE6
:10BC30001BD02DB1FCF772FDA0EB0800A84214D96F
:10BC40002068C16821F4D071C1602068416921F089
:10BC500001014161202084F8390084F83A00002075
:10BC600084F838000320BDE8F0812068006836EAD7
:10BC7000000004D00020B842D9D00020F3E7012012
:10BC8000F9E7000010B5FEF76BFC04490448FEF725
:10BC90009BFA04490120C87010BD0000B8000020C4
:10BCA000E00B0020000300200148FDF799BE0000D2
:10BCB000600C00202DE9F0410546204C1E48204E26
:10BCC00021780078491E08434FF000070BD0A07878
:10BCD00010B1A770294601E030684119BDE8F04174
:10BCE0002C200AF03FBE0DF091FCE178884203D091
:10BCF0000DF08CFCE070E760306840B1E1682844EA
:10BD00000844E06000212C200AF02CFE02E0E068EC
:10BD10002844E0605FF0000500F014F8002809D125
:10BD2000642002F0D7F86D1CADB20A2DF4D3A088C0
:10BD3000401CA080BDE8F0817D010020FC010020B6
:10BD400007F6070870B5ADF5347D0DF05FFC0546CC
:10BD50000DF0B8FC04460DF0CDFC024623462EA1A2
:10BD6000A4A8009500F002F90A22A4A901A802F0F3
:10BD7000FEFB18B101A802F0EBFB47E00A2002F03D
:10BD8000A9F800202B4EAC90AD90AE90AF902AA1B8
:10BD9000ACA8F26800F0EAF8ACA8FAF733FA024669
:10BDA000B2ABACA901A802F0F8FD0028E2D16420F2
:10BDB00002F090F801A802F0CBFB38BB642002F03F
:10BDC00089F80122A4A901A802F0D1FBF0B90A2048
:10BDD00002F080F8B1AB64228BA901A802F06CFCE0
:10BDE00005468BA8FAF724FA0446BDF8C40268B1E8
:10BDF00065B90A2002F06EF801A802F0A9FB28B983
:10BE00000A2002F067F8F068844203D000200DF5A4
:10BE1000347D70BD0120FAE7526576656E75652F39
:10BE200032302530326425303264253032642E744D
:10BE300078740000FC01002025640000FEE700008B
:10BE400030B5114C1149ADF5617DE06E401CE066E6
:10BE5000884216D90025A1A8E5660DF089F894F866
:10BE6000290000280DD001208DF800008DF8015226
:10BE7000A1AA07A10DF1010000F078F86846FAF7D1
:10BE8000A7FE0DF5617D30BD08000020905F010028
:10BE90002573000010B507A006F098FB00240022CF
:10BEA0000121204601F0DAF8641CE4B2222CF6D31A
:10BEB00010BD000057616974696E672E2E2E000058
:10BEC00070B5ADF5187D05460DF0A0FB06460DF0EA
:10BED000F9FB04460DF00EFC024623461BA18FA879
:10BEE000009600F043F80A228FA901A802F03FFB58
:10BEF00018B101A802F02CFB1EE00A2001F0EAFFB5
:10BF000000208B908C908D908E902A4616A18BA845
:10BF100000F02CF88BA8FAF775F9024697AB8BA9BD
:10BF200001A802F03AFD0028E3D1642001F0D2FF1D
:10BF300001A802F00DFB18B100200DF5187D70BDB1
:10BF4000642001F0C7FF0120F7E700005265766525
:10BF50006E75652F323025303264253032642530DD
:10BF600032642E7478740000256400000FB4084B0E
:10BF700010B504A902AA039800F0F2F8044602A939
:10BF8000002000F084FC204610BC5DF814FB00008B
:10BF90008FC800080907090E002804DB00F1E02023
:10BFA00080F80014704700F00F0000F1E02080F8E6
:10BFB000141D7047004870478403002002E008C841
:10BFC000121F08C1002AFAD170477047002001E013
:10BFD00001C1121F002AFBD1704700002DE9FF5F4D
:10BFE00082B00021DDE90430020DDDF840B00343EA
:10BFF00018D044F61050A2F2FF32424315141198A3