:1020000004488179C279114301D001207047007AD8
:1020100070470000C00000200148007870470000B1
:10202000B40100200148C07870470000B4010020CE
:1020300070B5394C0025607D30B1002000F034FDD2
:10204000422000F0A3FF65E0A07D002812D0B4F884
:10205000440002283FD003DC68B1012806D118E013
:1020600003284DD0A0F58071F73950D0401CA4F85A
:102070004400012070BD042084F82700E06D28345E
:1020800000F012FD432000F081FFA08B401CA083D4
:10209000EFE704F027FE0646303809280ED81F491E
:1020A000E06D88420AD200EB800006EB4000303839
:1020B000E06500F0F9FC432000F068FF232E02D019
:1020C0002A2E0ED0D5E72846E56500F0EDFC43202A
:1020D00000F05CFFCDE704F005FE23280CD02A2891
:1020E000C7D1E06D443400F025FC442000F04EFFE1
:1020F0002088401C2080BCE7E565A4F84450B8E780
:10210000452000F043FFE56534F8440FF1E7A5757D
:10211000A4F84450E565ACE708000020FFE0F505B1
:102120000148007870470000F00100200448C17A9F
:1021300019B10021C17201207047002070470000D2
:10214000C00000202DE9F0410D46044602290DD3C0
:10215000D4F81402A84209D994F800024FF0FF36CF
:10216000012807D002282AD0032836D0012630467D
:10217000BDE8F081D4F8200205EB550700EB5721AC
:10218000204605F0CEFD0028F1D1C7F308007F1CE2
:1021900014F80080D4F8200200EB5721204605F007
:1021A000C0FD0028E3D1C7F30800215C48EA012004
:1021B000E90701D00609DAE7C0F30B06D7E7D4F840
:1021C000200200EB1521204605F0ABFD0028CED102
:1021D000E8B204EB40000688C9E7D4F8200200EB1F
:1021E000D511204605F09DFD0028C0D140F2FF101A
:1021F00000EA850020440178D0F8010041EA00207F
:1022000020F07046B3E710B504464FF0FF30226867
:10221000002A13D0114600E0491C0B78212B0ED365
:102220003A2BF9D112F8013B303B0A2B06D28A42F5
:1022300004D1002B02D1491C1846216010BD00209A
:1022400010BD0A21B0FBF1F2B0FBF1F301FB13006A
:10225000120740EA126070471FB5104B0FCB8DE894
:102260000F006846F3F7CEFF4042802101EBC0002B
:10227000C0F347016B461E22094807F0D7FF094803
:1022800090F92A2008A16846F9F770FE6B463222C1
:102290003821034807F0CAFF1FBD000084F501087C
:1022A000486E00200C02002025303264000000003F
:1022B00038B5144814A190F859206846F9F756FE2D
:1022C0006B4610220821114807F0B0FF0D4C102278
:1022D000803428210D48636A07F0A8FF20220821D6
:1022E0000A48A36A07F0A2FF302208210748E36AE0
:1022F00007F09CFF402208210448236B07F096FF5B
:1023000038BD00000C02002025640000486E00204B
:1023100008B50DA323221C210E4807F087FF0E48A5
:102320000EA102686846F9F721FE6846F3F76AFFD6
:102330004042802101EBC000C0F347016B463422CC
:10234000044807F073FF08BD535441434B2031301C
:102350006B000000486E0020800000202564000013
:102360002DE9F04FDFF894808BB0D8F82000F3F718
:1023700049FFC7B20025A946202102A8F3F71FFF95
:1023800000260124A8F1800B0DF1080A0BE000BF24
:10239000D8F82000005D22280AD00AF805006D1C3C
:1023A000EDB2641CE4B2BC42F2D30BB0BDE8F08FD6
:1023B000BBF86A10B008884214D11149114807F0DF
:1023C000EDFF0021C9EB0910CDE9001A0E30C2B2B1
:1023D0000B460A210B4807F0E7FD09F1010000F068
:1023E000FF0900E0E1D806F10106B6B24FF0200186
:1023F00002A8F3F7E4FE0025D3E700008C020020DA
:1024000047FF0108486E00202DE9F041164890F87A
:102410003A0030B1012806D0022806D0032807D19F
:1024200005E0002404E00F2402E01E2400E02D2437
:10243000251D04F10E0600242F4604F1020807E0D2
:1024400008F0FF013A46094807F0D8FE7F1CFFB2AA
:10245000B742F5D96D1C761E641CE4B2EDB2F6B23B
:10246000062CE9D3BDE8F0810C020020486E002064
:10247000144810B50246B0F86E4092F83A20B0F811
:102480006A10531C641EDBB2A1420ED1B0F86C106E
:10249000491ECC1701EB947424F00304091B9142EC
:1024A00002DD00BF80F83A3010BD032AFAD3FBD119
:1024B000A142F9DA491CA0F86A10002180F83A100C
:1024C00010BD00000C02002000B587B014A30E223E
:1024D0002021164807F0AAFE15480069C2788178C5
:1024E000CDE900124378027812A102A8F9F73EFD67
:1024F00002AB282210210D4807F098FE0C4902205B
:1025000000908039114891F8541007234218415C1B
:10251000127C06480A32D2B207F004FD07B000BDB3
:102520004144532054494D4500000000486E0020AE
:102530008C020020253032643A253032642D3E254D
:102540003032643A253032640000000063F501083F
:1025500010B5154C86B015A12069027801A8F9F7CD
:1025600005FD01AB20222421134807F05FFE2069FE
:1025700012A1427801A8F9F7F9FC01AB3522242118
:102580000D4807F053FE02200090A4F180010E4890
:1025900091F8541007234218415C1279064807F05D
:1025A000C1FC06B010BD00008C020020524F573A0B
:1025B0002025303264000000486E0020434F4C3A22
:1025C000202530326400000090CA010810B504468E
:1025D0000C4807F077FC01F03DFA02F045FF204679
:1025E000F3F710FE4042802101EBC000C0F3470129
:1025F00023462022034807F019FEBDE81040014899
:1026000007F0AABE486E002010B50446124807F035
:1026100059FC01F01FFA02F027FF2046F3F7F2FD04
:102620004042802101EBC000C0F347012346202235
:10263000094807F0FBFD09A340220021064807F0E6
:10264000F5FD08A340225021034807F0EFFDBDE847
:102650001040014807F080BE486E0020282A292D2E
:102660004F4B00002823292D4E4F00001FB50A486C
:102670000AA1026C6846F9F779FC6846F3F7C2FDD7
:102680004042802101EBC000C0F347016B462A2283
:10269000034807F0CBFD1FBD8C020020256400001D
:1026A000486E002010B586B020A30E2230212148AC
:1026B00007F0BCFD204C2069C2788178CDE900127A
:1026C000437802781DA102A8F9F750FC02AB1E2244
:1026D0001021184807F0AAFD20691EA1437902794C
:1026E00002A8F9F743FC02AB2D220C21114807F098
:1026F0009DFD20691CA1C379827902A8F9F736FCF7
:1027000002AB3C220C210B4807F090FD0220009008
:10271000A4F18001194891F8541007234218415C34
:10272000127C044807F0FEFB06B010BD54494D452D
:1027300000000000486E00208C020020253032642A
:102740003A253032642D3E253032643A25303264E9
:102750000000000054454D50313A20253032642DA0
:102760003E2530326400000054454D50323A202559
:102770003032642D3E2530326400000063F50108DC
:10278000014890F83A0070470C02002010B5F7F7A6
:1027900075FB074B074A0849084807F043FE0748FE
:1027A00008F01CFABDE810400021044808F026BAE1
:1027B000DDAF010875AC0108283B0208486E002017
:1027C0000148B0F86A0070470C0200200149A1F8E6
:1027D0006A0070470C02002010B5064807F02EFD75
:1027E000FFF7BEFDFFF710FE024807F096FD002838
:1027F000F6D110BD486E0020164808B5014690F885
:10280000433091F8571001EB41029BB190F85810FA
:10281000482303EBC1011A23C9B203EB820200F87B
:102820004E1FD2B242700120009008230A4807F0E0
:1028300079FB08BD0021192303EB820200F84E1F2B
:10284000D2B2427001B005A303485DF804EB07F073
:10285000EDBC00000C020020486E00203E0000008D
:1028600038B5154C002084F850001FE0134901EBE7
:10287000C00253680093537811F830200F4810A11C
:10288000B838F9F773FB14F8500F192100EB40002A
:1028900001EB8000094BC2B2B83B082103F12400D0
:1028A00007F0C4FC2078401C04F85009C0B294F82A
:1028B00042108842DAD338BD0C020020DC6E0020C2
:1028C000253032642D3E253032643A20253035647F
:1028D00000000000014981F8430070470C0200200D
:1028E000044991F8432012B181F85800704781F8EB
:1028F000570070470C02002010B5044C04F830104B
:1029000004EBC0004270436010BD0000DC6E00208C
:10291000014981F8420070470C020020014908611A
:10292000704700008C020020014981F82A0070479E
:102930000C02002001498860704700008C020020D2
:1029400010B50D492022342306280DD2DFE800F00F
:10295000030507090D0F412004E0492002E069202A
:1029600000E0712048758A7510BD552000E05D209B
:1029700048758B7510BD00000C02002001074A0E3F
:102980000449000900EB001001F8382F213048708D
:10299000704700000C020020014981F85400704784
:1029A0000C02002001074A0E0449000900EB001048
:1029B00001F8382F21304870704700000C020020C9
:1029C000014981F84A0070470C020020F0B530241C
:1029D0001A491F2238254826502734230C2819D29B
:1029E000DFE800F006090C0F1214191C1F2225271E
:1029F00001F8234F0DE001F8235F0AE001F8236F8F
:102A000007E001F8237F04E0702000E0782001F85F
:102A1000230F4A70F0BD01F8234F0DE001F8235F4A
:102A20000AE001F8236F07E001F8237F04E060204B
:102A300000E0682001F8230F4B70F0BD0C0200206D
:102A40000949342250B101280AD002280AD00328AB
:102A500003D1532001F8250F4A7070472320F9E76E
:102A60002B20F7E74B20F5E70C0200200149888076
:102A700070470000D06E0020014981F85C0070476B
:102A80000C020020014981F85A0070470C02002016
:102A900001494861704700008C0200200149C8804C
:102AA00070470000D06E0020014948607047000068
:102AB0008C0200200149A1F8600070470C02002040
:102AC00001490861704700008C02002070B5124D6A
:102AD0000021A5F180042862A4F86C10F3F792FBA2
:102AE000C1B201202A6A09E0135C222B04D1B4F898
:102AF0006C305B1CA4F86C30401CC0B28842F3D32D
:102B0000B4F86C108808A4F86E00890702D0401C45
:102B1000A4F86E0070BD00008C02002001490881FD
:102B200070470000D06E00200149486770470000E0
:102B30000C02002001490860704700008C02002050
:102B40000149488070470000D06E0020014981F89B
:102B50005D0070470C020020014981F85B0070475E
:102B60000C02002001490864704700008C0200201C
:102B7000014981F83E0070470C020020014981F8AC
:102B80003D0070470C02002010B520A386B00FCB8B
:102B90008DE80F006846F3F735FB4042802404EBD4
:102BA000C000C0F347016B4619221C4807F03EFBEA
:102BB0001B48C06F072825D2DFE800F004060C0E82
:102BC0001012260017A000E018A0D0E90010CDE9EF
:102BD00004100AE017A0F8E718A0F6E719A0F4E738
:102BE0001AA1D1E90001CDE9040104A8F3F70AFB19
:102BF000404204EBC000C0F3470104AB2D2207485C
:102C000007F014FB06B010BD12A0DEE74E455720BA
:102C100050415353574F524400000000486E00206B
:102C20000C0200202A2A2A2A2A2A0000232A2A2AD9
:102C30002A2A000023232A2A2A2A00002323232ABF
:102C40002A2A0000232323232A2A000023232323C4
:102C5000232A0000232323232323000010B520A3CD
:102C600086B00FCB8DE80F006846F3F7CBFA4042F1
:102C7000802404EBC000C0F347016B4619221C48B6
:102C800007F0D4FA1B48C06F072825D2DFE800F010
:102C900004060C0E1012260017A000E018A0D0E9C0
:102CA0000010CDE904100AE017A0F8E718A0F6E735
:102CB00019A0F4E71AA1D1E90001CDE9040104A8A3
:102CC000F3F7A0FA404204EBC000C0F3470104ABA5
:102CD0002D22074807F0AAFA06B010BD12A0DEE7C1
:102CE000454E54455220495420414741494E000029
:102CF000486E00200C0200202A2A2A2A2A2A0000D4
:102D0000232A2A2A2A2A000023232A2A2A2A0000E0
:102D10002323232A2A2A0000232323232A2A0000EC
:102D200023232323232A00002323232323230000F8
:102D300001498867704700000C0200201FB509A3F5
:102D40000FCB8DE80F006846F3F75CFA4042802114
:102D500001EBC000C0F347016B462822054807F08D
:102D600065FA1FBD50415353574F52442057524F9D
:102D70004E470000486E00200149C86770470000B8
:102D80000C0200201FB509A30FCB8DE80F00684689
:102D9000F3F738FA4042802101EBC000C0F347014D
:102DA0006B462822054807F041FA1FBD535543439F
:102DB00045535346554C4C5900000000486E0020C6
:102DC0000149A1F8700070470C020020014981F808
:102DD0004D0070470C0200200149488170470000F7
:102DE000D06E0020014981F83A0070470C020020A3
:102DF0000149C870704700000C02002001490871A9
:102E0000704700000C0200200149A1F864007047DF
:102E10000C020020014981F8270070470C020020B5
:102E200001498861704700008C0200200149C86197
:102E3000704700008C020020014981F8280070478B
:102E40000C020020014981F8400070470C0200206C
:102E500001490870704700000C020020014981F808
:102E6000460070470C020020014981F84700704776
:102E70000C020020014981F8440070470C02002038
:102E8000014981F8450070470C02002001490861A2
:102E9000704700008C020020014908807047000044
:102EA000D06E002007480021192300F8511F427BF3
:102EB00002EB420203EB8202D2B2427002A3034849
:102EC00007F0B4B90C0200203E000000486E00205C
:102ED00070B5144C002004F1CC0584F85300192679
:102EE0001AE000BF05EB400115F810204B780EA149
:102EF0001048F9F73BF814F8530F0E4B00EB400065
:102F000006EB8000C2B2082103F1120007F08EF92F
:102F10002078401C04F85309C0B294F84C10884241
:102F2000E0D370BD0C020020253032642D3E2530E8
:102F300032640000366E0020014981F85E0070475F
:102F40000C020020034B03F8101003EB400042700A
:102F500070470000D8020020014981F84C007047FA
:102F60000C020020084890F83A1009B1491E07E009
:102F7000B0F86A10002905D0491EA0F86A10032194
:102F800080F83A10704700000C0200201CB504467F
:102F9000CC4890F84000012870D0CB4806F092FF52
:102FA00000F058FD02F060FA5E2C32D2DFE804F047
:102FB00053676A6D7075787B7E81878A84EE8D9009
:102FC0009396999C9FA2A5A8ABAEB1B4B7FBBAEFFC
:102FD000F2F5F8FEE7E6E5E4E3E2E1E0DFDEDDDC82
:102FE000DBDAD9D8D7D6D5D4D331D2D1D0CFCECD44
:102FF000CCCBCAC9C8C7C6C5C4504DC34AC2C14458
:10300000473B313E413538322F31C0BFBEBD00F0A5
:1030100061F950E101F04CFC4DE101F0A9FA4AE1FF
:1030200001F0DAFA47E101F0A9F844E101F00EFA03
:1030300041E100F0B5FE3EE101F084FD3BE101F02D
:1030400089FD38E100F0CAFB35E102F02FFC32E1E6
:1030500001F06AF82FE100F0C7FD00F003FF9B4884
:1030600000780128D5D19A490F20CDE90001082325
:1030700031223F21944806F02EFF1CE120E100F0B0
:10308000D1FA18E100F038FC15E102F0CFFA12E1B4
:1030900001F01EF901F02CF90DE101F0C1F80AE18F
:1030A00001F0A2F807E101F0D7F804E100F056FCC6
:1030B00001E100F027FEFEE000F082F9FBE002F003
:1030C000C9F8F8E001F0D8F8F5E000F031FBF2E0E3
:1030D00000F018FFEFE002F073FCECE001F070FF8D
:1030E000E9E001F0CDFEE6E001F012FFE3E001F0DF
:1030F0006FFFE0E002F026F8DDE001F09BFFDAE090
:1031000002F064F8D7E001F0D9FFD4E000F038FB1A
:10311000D1E0FFF7CDF8CEE0FFF7FAF8CBE002F010
:10312000C7F9C8E0FFF730FDC5E0C2E0BEE0BAE095
:10313000B6E0ACE0A8E0A4E09AE096E092E08FE090
:103140008BE087E083E0A8E0A4E097E093E07BE0F9
:1031500077E073E06FE06BE067E063E05FE05BE027
:1031600057E053E04FE04BE047E043E03FE03BE017
:1031700037E033E02FE028E024E020E01CE018E016
:1031800014E00DE009E005E001E00CE020E0FFF7CD
:1031900065FD90E0FFF7F6FD8DE0FFF7CFFD8AE0DB
:1031A00001F024FE87E0FFF757F884E000F0ECF927
:1031B00081E000F0D1FE7EE001F006F97BE000F056
:1031C000B1FD78E000F012FA75E002F053FB72E016
:1031D00001F01EFB6FE000F0DBFE6CE001F088FE0A
:1031E00069E001F03BFB66E000F0FAF863E002F012
:1031F000DBF960E000F00AFE5DE001F02DFC5AE032
:1032000002F046FA57E002F021FA54E000F01EFB0B
:1032100051E000F0F3FA4EE002F0EEFA4BE001F07C
:10322000F5FC48E001F06AFD45E002F053FA42E0A7
:1032300002F02CF83FE000F011FA3CE001F01EFA39
:1032400039E001F095FA36E001F010F933E000F0D2
:1032500063FB30E000F0C6FB2DE000F02BFA2AE023
:1032600000F020FB02F090FB25E001F0DFF822E007
:1032700001F08EF81FE000F081FB1CE002F054FA30
:1032800019E002F049FB16E000F0FCFA13E001F04F
:103290000FF810E000F074FC0DE002F07BFA0AE099
:1032A000FFF7E4F907E0FFF7FDF904E0FFF70CF999
:1032B00001E0FFF74DF9BDE81C40034807F04CB8AA
:1032C0001CBD00000C020020486E00200B000020F6
:1032D00022DE010810B586B02DA3182229212D4821
:1032E00006F0A4FF2CA318225C212A4806F09EFFBA
:1032F0002AA32A220021274806F098FF28A33C226F
:103300000021244806F092FF2648002190F854003E
:1033100003E0491C001FC9B2C0B20428F9D803E079
:10332000491C801EC9B2C0B20228F9D80220009000
:103330001E2000EBC100C1B207233E22154806F053
:10334000F1FD184C8034E06BC2788178CDE9001231
:103350004378027814A102A8F8F708FE02AB2A22EB
:103360001E210C4806F062FFE06BC2798179CDE93D
:103370000012437902790CA102A8F8F7F7FD02AB1D
:103380003C221E21034806F051FF06B010BD00008C
:103390004F4E0000486E00204F4646004F6C6400C0
:1033A0004E6577000C020020253032643A25303219
:1033B000642020253032643A253032640000000059
:1033C0001CB505492820CDE9000110231122002158
:1033D000024806F080FD1CBD97ED0108486E0020F4
:1033E0002DE9FC4158A316220D21584806F01EFF76
:1033F00057A316221821554806F018FF55A3162288
:103400002321524806F012FF53A316222E214F48C3
:1034100006F00CFF51A3162239214C4806F006FF96
:103420004FA316224421494806F000FF4DA316225F
:103430004F21464806F0FAFE4BA316225A21434874
:1034400006F0F4FE49A316226521404806F0EEFE80
:1034500047A3162270213D4806F0E8FE454C46A1E0
:1034600001A894F83E20F8F781FD44A3242200210E
:10347000364806F0DBFE34A332220021334806F042
:10348000D5FE33A340220021304806F0CFFE94F849
:103490003E00012802D002280ED01FE02DA32422D6
:1034A00000212A4806F0C2FE2BA332220021274821
:1034B00006F0BCFE29A30CE029A324220021234806
:1034C00006F0B4FE27A332220021204806F0AEFE0B
:1034D00025A3402200211D4806F0A8FE2220002539
:1034E000274E84F83C000E2784F83B7094F83E0089
:1034F0006D1CEDB2C0EB001005EB400006EB800048
:1035000010F8032C092A01D91EA304E01AA1684669
:10351000F8F72CFD6B4694F83C2094F83B100B48D0
:1035200006F084FE94F83B000B30C0B284F83B00F8
:103530007828DBD394F83C000E30C0B284F83C000D
:103540004628D1D3BDE8FC8131000000486E002040
:10355000320000003300000034000000350000009D
:10356000360000003700000038000000390000007D
:10357000313000000C020020256400003000000003
:10358000880600207800000010B512A086B0006800
:10359000049004A8F2F736FE4042802404EBC000F9
:1035A000C0F3470104AB1E220B4806F03FFE0BA3FD
:1035B0000FCB8DE80F006846F2F724FE404204EB83
:1035C000C000C0F347016B463222034806F02EFECE
:1035D00006B010BD49440000486E002054434E31EF
:1035E0003831323133303036370000000EB509A2A1
:1035F00007CA8DE807006846F2F704FE40428021C2
:1036000001EBC000C0F347016B461E22044806F0E0
:103610000DFE0EBD30303030303030300000000054
:10362000486E00201CB50B491120CDE900010A238A
:103630000C221A21084806F04EFC06491320AA3134
:10364000CDE900010B231E221721034806F043FC9D
:103650001CBD00002ECE0108486E002010B50AA344
:103660001E2218210B4806F0E1FD0BA33222042193
:10367000084806F0DBFD4022BDE810400AA31421F3
:10368000044806F0D3BD0000436C656172204461BC
:1036900074610000486E002053484F554C44204749
:1036A000455420444154410046524F4D2053455209
:1036B0005645520000B585B013A31B220C211648B5
:1036C00006F0B4FD154816A182686846F8F74EFC6E
:1036D0006846F2F797FD4042402101EB8000C1B2FD
:1036E0006B462C220C4806F0A1FD0EA33E220021C1
:1036F000094806F09BFD0CA33E225021064806F027
:1037000095FD05B000BD0000434F4E4649524D2087
:10371000454E544552000000486E00208C020020A7
:10372000256400005965730043616E63656C000099
:103730001CB50D480DA1C2686846F8F717FC0CA32C
:10374000232214210D4806F071FD6846F2F75AFD58
:103750004042802101EBC000C0F347016B46352297
:10376000064806F063FD1CBD8C02002025640000A5
:103770004441494C592053414C455300486E002068
:103780003EB5124CB4F8662011A16846F8F7EEFB7E
:103790006B4618221E21104806F048FDB4F8682038
:1037A0000BA16846F8F7E2FB6B462C221E210A4863
:1037B00006F03CFDA27B06A16846F8F7D7FB6B46F6
:1037C00040221E21044806F031FD3EBD0C020020BF
:1037D0002530356400000000486E00201CB5054906
:1037E0001120CDE900010F231E220A21024806F014
:1037F00072FB1CBDAADF0108486E00200EB50F4900
:103800001120CDE900010E23142209210C4806F0F5
:1038100062FB0C480CA1426902A8F8F7A7FB02A8BA
:10382000F2F7F0FC4042802101EBC000C0F34701F9
:1038300002AB3722024806F0F9FC0EBD34DD010868
:10384000486E00208C020020256400001CB50A4947
:103850001220CDE900010F230E220321074806F0B4
:103860003AFB07491020CDE900010F23252203214F
:10387000024806F030FB1CBD65D80108486E0020E8
:1038800073D901081CB505492420CDE90001102396
:103890000F220021024806F01EFB1CBDE7E60108CE
:1038A000486E002010B50AA31B2208210C4806F020
:1038B000BDFC0CA32A222421094806F0B7FC3922BA
:1038C000BDE8104009A31821054806F0AFBC000070
:1038D000474554204D4F4E45592046524F4D00000C
:1038E000486E002043415348424F580053554343CC
:1038F00045535346554C00001CB505491420CDE9ED
:103900000001102316220021024806F0E4FA1CBD33
:10391000EECC0108486E002010B507A31B220C2135
:10392000094806F083FC2D22BDE8104007A31021B2
:10393000054806F07BBC000047455454494E4720DB
:103940004D4F4E4559000000486E002046524F4DE5
:103950002043415348424F58000000001CB5054920
:103960002220CDE90001102311220021024806F097
:10397000B2FA1CBDC7E40108486E002010B58AB039
:103980001549164806F00AFD022000901448072346
:1039900090F8392090F83810104806F0C3FA104C0F
:1039A0001022803401A8A169F2F720FC01AB1E228D
:1039B00000210A4806F03AFCA1690DF10F0010221F
:1039C00004461031F2F712FC23462F22002103484F
:1039D00006F02CFC0AB010BDB8F50108486E0020B6
:1039E0000C02002000B585B010A319221421124842
:1039F00006F01CFC11A3262210210F4806F016FC2D
:103A0000124813A142686846F8F7B0FA6846F2F720
:103A1000F9FB4042402101EB8000C1B26B463C22E1
:103A2000054806F003FC05B000BD0000454E5445B6
:103A300052204D4F4E455900486E002046524F4D82
:103A40002043415348424F58000000008C020020A0
:103A5000256400002DE9F8434649474806F09EFCDE
:103A600009200090022301220621434806F05AFA59
:103A700004220521404806F0C1FB042208213E48EB
:103A800006F0BCFB032205213B4806F0B7FB0322EE
:103A90000421394806F0B2FB03220821364806F01B
:103AA000ADFB03220921344806F0A8FB02220521C0
:103AB000314806F0A3FB022204212F4806F09EFBAA
:103AC000022203212C4806F099FB022208212A48F1
:103AD00006F094FB02220921274806F08FFB022200
:103AE0000A21254806F08AFB01220521224806F01A
:103AF00085FB01220421204806F080FB01220321DE
:103B00001D4806F07BFB012202211B4806F076FBD4
:103B100001220821184806F071FB012209211648EC
:103B200006F06CFB01220A21134806F067FB012214
:103B30000B21114806F062FB0024022608274FF0F3
:103B40000A080E4D10E000BF06EB4400C0B2009022
:103B5000604207EB4000C2B208EB4400C1B202234E
:103B6000054806F0DFF9641C95F841008442EBDB60
:103B7000BDE8F883B8F50108486E00200C0200206B
:103B800010B58AB01549164806F008FC02200090CE
:103B90001448072390F8392090F83810104806F0A0
:103BA000C1F9104C1022803401A8E169F2F71EFB24
:103BB00001AB1E2200210A4806F038FBE1690DF135
:103BC0000F00102204461031F2F710FB23462F227B
:103BD0000021034806F02AFB0AB010BDB8F5010821
:103BE000486E00200C02002010B53B488CB00178D4
:103BF0003A48D1B3012936D1B0F8602038A102A8E3
:103C0000F8F7B4F937480B24CDE90040032310221C
:103C10000021354806F05FF902AB1B22162132481D
:103C200006F004FB2F4804232C38CDE90040112274
:103C300036212D4806F04FF92D492C48097800EB24
:103C400081002C4910F8020C00EB400001EB8000D1
:103C500023A1826809A8F8F789F91C2209AB582129
:103C6000214806F0E3FA0CB010BDFFE7B0F8601091
:103C700061B1B0F860103C291BD90CB02622BDE818
:103C800010401DA32C21184806F0D0BA0121164877
:103C900006F07CFB0021144806F067FB184916204B
:103CA000CDE900010246102300210F4806F013F968
:103CB000D9E7B0F860200AA16846F8F757F96846D6
:103CC000F2F7A0FA4042802101EBC000C0F34701A7
:103CD0006B462622C4E700000B0000200C020020E7
:103CE000256400003FE30108486E0020880600209C
:103CF0003B000020200500204552524F520000009A
:103D000098CA01081CB505492220CDE900010F23FE
:103D100011220521024806F0DEF81CBD17F001084B
:103D2000486E002008B510A319220521124806F09C
:103D30007DFA12A3282205210F4806F077FA13A373
:103D40003C2205210C4806F071FA134890F829200E
:103D500012A16846F8F70AF96B463C22642106482E
:103D600006F064FA08BD000053455249455320450A
:103D700052524F5200000000486E002057494C4CF0
:103D8000204C4F434B20564D4400000039204449FD
:103D90005341424C450000000C0200202564000005
:103DA00000B587B014491220CDE900010F230E227F
:103DB0000421124806F08FF8114812A1826B02A864
:103DC000F8F7D4F802A8F2F71DFA4042402101EBBF
:103DD0008000C1B202AB2E22084806F027FA0A4939
:103DE0001020CDE90001034630220021034806F0EF
:103DF00072F807B000BD000055F40108486E0020BD
:103E00008C0200202564000097EC01080EB50AA37F
:103E10001E2208210C4806F009FA0C4890F82B20C5
:103E20000BA16846F8F7A2F86B4632223821064803
:103E300006F0FCF90EBD00004D494E494D554D2090
:103E40004348414E47450000486E00200C020020C8
:103E5000253032640000000001498863704700008B
:103E60008C02002000B51D4887B001781C48C1B104
:103E7000012914D1426F1BA102A8F8F777F81A495B
:103E80000E20CDE90001062324220021174806F068
:103E900022F82F2202AB3221144806F0C7F907B0EE
:103EA00000BD416F81B1426F0EA16846F8F75EF820
:103EB0006846F2F7A7F94042802101EBC000C0F349
:103EC00047016B463B22E7E707B03B2208A30021EE
:103ED00006485DF804EB06F0A9B900000B000020CD
:103EE0000C0200202564000060E30108486E0020F9
:103EF00020202020202020202020202020202020C2
:103F0000000000001CB50D480DA1C2686846F8F716
:103F10002DF80CA323220C210E4806F087F96846E1
:103F2000F2F770F94042802101EBC000C0F3470175
:103F30006B463522074806F079F91CBD8C0200203B
:103F4000256400004D4F4E54484C592053414C4578
:103F500053000000486E00200EB509A207CA8DE884
:103F600007006846F2F74EF94042802101EBC0009D
:103F7000C0F347016B461E22044806F057F90EBDF8
:103F8000534C4F5420434F4445000000486E0020DE
:103F9000F8B555A316220D21544806F047F954A34D
:103FA00016221821514806F041F952A31622232166
:103FB0004E4806F03BF950A316222E214B4806F03E
:103FC00035F94EA316223921484806F02FF94CA3A3
:103FD00016224421454806F029F94AA316224F210A
:103FE000424806F023F948A316225A213F4806F01A
:103FF0001DF946A3162265213C4806F017F944A393