:1040000016227021394806F011F9424C42A1684647
:1040100094F83D20F7F7AAFF40A32422002133485B
:1040200006F004F930A332220021304806F0FEF8F1
:104030002FA3402200212D4806F0F8F894F83D0007
:10404000012802D002280ED01FE02AA3242200213A
:10405000264806F0EBF828A332220021234806F078
:10406000E5F826A30CE026A3242200211F4806F031
:10407000DDF824A3322200211C4806F0D7F822A341
:1040800040220021194806F0D1F82220002584F8AA
:104090003C000E2684F83B6094F83D00C0EB001015
:1040A00005EB4000C0B204F021F8D8B11CA300BF5A
:1040B00094F83C2094F83B100C4806F0B7F894F8BC
:1040C0003B006D1C0B30C0B2EDB284F83B00782889
:1040D000E2D394F83C000E30C0B284F83C0046288D
:1040E000D8D3F8BD0FA3E3E731000000486E0020ED
:1040F00032000000330000003400000035000000F2
:1041000036000000370000003800000039000000D1
:10411000313000000C020020256400003000000057
:104120006F0000007800000000B587B00F490E2036
:10413000CDE900011023192200210D4805F0CBFE26
:104140000C480DA1B0F8722002A8F7F70FFF02A8E3
:10415000F2F758F84042402101EB8000C1B202ABB7
:104160003C22034806F062F807B000BDE7E301080F
:10417000486E00200C0200202564000000B587B0C6
:1041800014491120CDE9000110230E22002112480C
:1041900005F0A1FE114812A1826B02A8F7F7E6FE16
:1041A00002A8F2F72FF84042402101EB8000C1B293
:1041B00002AB2E22084806F039F80A491020CDE952
:1041C0000001034630220021034805F084FE07B0B9
:1041D00000BD000087EB0108486E00208C02002023
:1041E0002564000097EC01081CB50A490F20CDE9B1
:1041F000000111220C231146074805F06CFE074907
:104200001020CDE90001052325222D21024805F0CB
:1042100062FE1CBD03D00108486E0020BBD201081D
:104220001CB50B491020CDE9000101460C231122D9
:10423000084805F050FE06491220C031CDE90001C2
:104240000C2325221121034805F045FE1CBD00006A
:1042500003D00108486E00201CB505491220CDE9A5
:1042600000010F231A220521024805F034FE1CBD6F
:104270000BD30108486E00201CB50B491220CDE974
:10428000000105230F222D21084805F024FE0649D0
:104290001320D139CDE900010B2324221721034833
:1042A00005F019FE1CBD0000A9CF0108486E0020D2
:1042B0001CB505492620CDE9000110230F2200215D
:1042C000024805F008FE1CBD27E90108486E0020E1
:1042D0001CB505491220CDE9000110230F22002151
:1042E000024805F0F8FD1CBD9BD10108486E002076
:1042F0001CB51748806F8024072823D2DFE800F020
:1043000004060C0E1023250012A000E013A0D0E933
:104310000010CDE9001008E012A102E013A0F6E7BA
:1043200014A1D1E90001CDE900016846F1F76AFF67
:10433000404204EBC000C0F347016B462D220F48FA
:1043400005F074FF1CBD0EA1EBE70FA0DFE7000036
:104350000C0200202A2A2A2A2A2A0000232A2A2A92
:104360002A2A000023232A2A2A2A00002323232A78
:104370002A2A0000232323232A2A0000486E002033
:1043800023232323232A0000232323232323000082
:104390001CB50A490F20CDE9000103461422032170
:1043A000074805F098FD07490E20CDE900010346B6
:1043B00028220521024805F08EFD1CBD63DA0108A4
:1043C000486E002019D4010810B50DA3172205214D
:1043D0000D4805F02BFF0DA3242205210A4805F006
:1043E00025FF0CA331220521074805F01FFF3E22BF
:1043F000BDE810400AA30521034805F017BF0000DF
:1044000042494C4C00000000486E00204348414E99
:1044100047455200434153484C4553530000000068
:10442000434C454152205052455353001CB5054959
:104430001120CDE9000110231E220021024805F0C1
:104440004AFD1CBD45D60108486E00201CB5054933
:104450002420CDE9000110231A460021024805F06E
:104460003AFD1CBD15F20108486E002010B588B059
:104470003049314805F092FF304C94F85D1094F8C3
:104480005C00CDE9000194F85B3094F85A202CA12F
:1044900002A84A34F7F76AFD02AB1B22082126481E
:1044A00005F0C4FE022000902078072300EB5001A5
:1044B0008008C0EBC002C90001EB8201404201EB61
:1044C00080000830C1B21F221B4805F02BFDE28C92
:1044D00021A102A8F7F74AFD20A32D2201211648A9
:1044E00005F0A4FE02A8F1F78DFE4042782404EB0B
:1044F000C000C1B202AB2D220F4805F097FE0F4855
:1045000015A18030026802A8F7F730FD16A33C22FF
:104510000121094805F08AFE02A8F1F773FE404226
:1045200004EBC000C1B202AB3C22034805F07EFEA2
:1045300008B010BDB8F50108486E00200C0200203C
:10454000253032642F25303264202D3E2025303234
:10455000642F253032640000256400005175616EBF
:10456000746974793A0000004D6F6E65793A000005
:1045700000B585B00FA212A16846F7F7F7FC6846B0
:10458000F1F740FE4042402101EB8000C1B26B4692
:104590001E220C4805F04AFE0BA33C2200210948CC
:1045A00005F044FE0AA33C225021064805F03EFED9
:1045B00005B000BD5245534554204D4F4E4559005E
:1045C00025730000486E0020282A295965730000D1
:1045D0002823294E6F00000010B590B01CA21EA128
:1045E0006846F7F7C3FC1DA21BA105A8F7F7BEFCA0
:1045F0001DA219A10AA8F7F7B9FC1E48402490F89B
:104600004D0078B101280BD10AA8F1F7FBFD40421B
:1046100004EB8000C1B20AAB1E22174805F006FE6B
:1046200010B010BD6846F1F7EDFD404204EB80008C
:10463000C1B26B461E22104805F0F8FD05A8F1F73F
:10464000E1FD404204EB8000C1B205AB2E22E4E75D
:1046500057414954494E4700257300005245534580
:1046600054204D4F4E4559005355434345535346EF
:10467000554C00000C020020486E00207FB5354DDF
:10468000334C15F8480F00EB400204EB82004178F0
:10469000837843EA0121C378007943EA012140EAA3
:1046A000012004EB420111F8793F4978009041EA7A
:1046B000032329A101A8F7F759FC01AB1A22002115
:1046C0002A4805F0B3FD287800EB400204EB820095
:1046D0004179837943EA0121C379007A43EA0121D0
:1046E00040EA012004EB4201521C11F87B3F49785B
:1046F000009041EA032318A101A8F7F737FC01ABAA
:104700002C220021194805F091FD287800EB400289
:1047100004EB82004178837A43EA0121C37A007B6B
:1047200043EA012104EB420340EA012013F87D1F14
:10473000921C5B78009043EA012307A101A8F7F7D8
:1047400015FC01AB3E220021084805F06FFD7FBD3E
:1047500000C807080C0200205B253032645D2D255F
:104760003033642D2530376400000000486E00208F
:104770007FB5204D1E4C15F8490F00EB400204EBAD
:10478000420010F8B51F437800911BA101A8F7F76C
:10479000EDFB01AB1A2200211C4805F047FD2878EB
:1047A00000EB400204EB4201521C11F8B70F4B78AA
:1047B000009011A101A8F7F7D9FB01AB2C22002131
:1047C000124805F033FD287800EB400204EB42016B
:1047D000921C11F8B90F4B78009007A101A8F7F7C8
:1047E000C5FB01AB3E220021084805F01FFD7FBD3F
:1047F00000C807080C0200205B253032645D2D25BF
:104800003032642F2530326400000000486E0020F2
:104810001CB510481024CDE900400F230D220521BE
:104820000D4805F058FB0B490F20E139CDE9000197
:10483000034620220221084805F04DFB05481023BD
:10484000F030CDE9004030220021034805F043FB61
:104850001CBD000044DB0108486E00203EB50C483A
:104860008024007810B10BA007C801E00CA207CA91
:104870008DE807006846F1F7C5FC404204EBC00034
:10488000C0F347016B462622084805F0CFFC3EBD29
:1048900031000020534552564552204F4E00000033
:1048A000534552564552204F46460000486E002060
:1048B0002DE9FC4158A316220D21584805F0B6FCFD
:1048C00057A316221821554805F0B0FC55A316220F
:1048D0002321524805F0AAFC53A316222E214F484B
:1048E00005F0A4FC51A3162239214C4805F09EFC8A
:1048F0004FA316224421494805F098FC4DA31622E7
:104900004F21464805F092FC4BA316225A214348FA
:1049100005F08CFC49A316226521404805F086FC71
:1049200047A3162270213D4805F080FC454C46A166
:1049300001A894F83E20F7F719FB44A32422002194
:10494000364805F073FC34A332220021334805F0C9
:104950006DFC33A340220021304805F067FC94F839
:104960003E00012802D002280ED01FE02DA32422F1
:1049700000212A4805F05AFC2BA3322200212748A7
:1049800005F054FC29A30CE029A32422002123488C
:1049900005F04CFC27A332220021204805F046FCFC
:1049A00025A3402200211D4805F040FC22200025BF
:1049B000274E84F83C000E2784F83B7094F83E00A4
:1049C0006D1CEDB2C0EB001005EB400006EB800063
:1049D00010F8022CEAB11CA16846F7F7C7FA6B463B
:1049E00094F83C2094F83B100C4805F01FFC94F818
:1049F0003B000B30C0B284F83B007828DED394F83B
:104A00003C000E30C0B284F83C004628D4D3BDE848
:104A1000FC8110A3E4E7000031000000486E002094
:104A200032000000330000003400000035000000B8
:104A30003600000037000000380000003900000098
:104A4000313000000C02002025640000300000001E
:104A500088060020780000001FB52E492E4805F07A
:104A60009DFC02240A2326224E212B48009405F0A7
:104A700059FA0A2337224E212748009405F052FAAA
:104A80000094264C0723244894F8222014F8211F70
:104A900005F048FA22A3192214211F4805F0C6FB8D
:104AA00022A32B220A211C4805F0C0FB21A33C2293
:104AB0000A21194805F0BAFB627B20A101A8F7F78B
:104AC00055FA01AB3C223721134805F0AFFBA27B1E
:104AD0001AA101A8F7F74AFA01AB3C225F210E4860
:104AE00005F0A4FBE27A15A101A8F7F73FFA01ABA4
:104AF0002B223721084805F099FB227B0FA101A842
:104B0000F7F734FA01AB2B225F21034805F08EFB47
:104B10001FBD0000B8F50108486E00200C020020FF
:104B200053455420524556454E5545004E4F573A31
:104B3000000000005345543A000000002530326464
:104B40000000000010B5FEF7ADF9BDE81040FEF71B
:104B5000BFB9000010B5234886B023A190F84B20C0
:104B600001A8F7F703FA01AB1E221421214805F032
:104B70005DFB21A31C2256211E4805F057FB012492
:104B800002231C2256211B48009405F0CBF9022376
:104B90001D2257211748009405F0C4F903231E2253
:104BA00058211448009405F0BDF901231F22592112
:104BB0001048009405F0B6F902231D225A210D4831
:104BC000009405F0AFF902231C225B2109480094F0
:104BD00005F0A8F909A334220F21064805F026FBA9
:104BE00006B010BD0C020020534C4F543A20253221
:104BF00064000000486E00205E00000043484F4FF4
:104C00005345204B45592E2E2E0000001FB52E492E
:104C10002E4805F0C3FB02240A2326224E212B48EE
:104C2000009405F07FF90A2337224E21274800948B
:104C300005F078F90094264C0723244894F82220A4
:104C400014F8211F05F06EF922A3192204211F4830
:104C500005F0ECFA23A32B220A211C4805F0E6FA02
:104C600022A33C220A21194805F0E0FAE27B21A1A7
:104C700001A8F7F77BF901AB3C223721134805F077
:104C8000D5FA227C1BA101A8F7F770F901AB3C22F1
:104C90005F210E4805F0CAFA627C16A101A8F7F759
:104CA00065F901AB2B223721084805F0BFFAA27C39
:104CB00010A101A8F7F75AF901AB2B225F21034895
:104CC00005F0B4FA1FBD0000B8F50108486E0020D9
:104CD0000C0200205345542054454D5020574F524C
:104CE0004B2031004E4F573A000000005345543AD4
:104CF0000000000025303264000000001FB52E497E
:104D00002E4805F04BFB02240A2326224E212B4875
:104D1000009405F007F90A2337224E212748009412
:104D200005F000F90094264C0723244894F822202B
:104D300014F8211F05F0F6F822A3192204211F48B8
:104D400005F074FA23A32B220A211C4805F06EFA01
:104D500022A33C220A21194805F068FAE27C21A12D
:104D600001A8F7F703F901AB3C223721134805F0FE
:104D70005DFA227D1BA101A8F7F7F8F801AB3C22F0
:104D80005F210E4805F052FA627D16A101A8F7F7DF
:104D9000EDF801AB2B223721084805F047FAA27D38
:104DA00010A101A8F7F7E2F801AB2B225F2103481D
:104DB00005F03CFA1FBD0000B8F50108486E002060
:104DC0000C0200205345542054454D5020574F525B
:104DD0004B2032004E4F573A000000005345543AE2
:104DE00000000000253032640000000010B586B0DD
:104DF000022000901448072390F8242090F82310F4
:104E0000124805F08FF8114C883420880090638890
:104E1000A2880FA101A8F7F7A9F801AB1E22002173
:104E20000A4805F003FA608900902389E2880EA100
:104E300001A8F7F79BF801AB2E220021034805F0EB
:104E4000F5F906B010BD00000C020020486E0020ED
:104E5000446174653A20253032642F253032642F46
:104E6000323025303264000054696D653A202530B7
:104E700032643A253032643A253032640000000052
:104E80001FB50E4C626F0EA16846F7F76FF86B46C0
:104E90001E2208210D4805F0C9F994F85400012894
:104EA0000BD10BA32D220821084805F0BFF90CA354
:104EB00040220021054805F0B9F91FBD0C02002071
:104EC00050726963653A202536640000486E002000
:104ED00053656C656374206B65792E2E2E0000007F
:104EE000454E5445522D3E46696E69736800000078
:104EF0001CB505491120CDE9000110231C22002119
:104F0000024804F0E8FF1CBD55D70108486E002098
:104F10001FB52149214805F041FA02240A2318222D
:104F200057211E48009404F0FDFF00941C4C0723F9
:104F30001A48A27D617D04F0F5FF1AA31E220A2102
:104F4000164805F073F919A332220A21134805F017
:104F50006DF9E27818A101A8F7F708F801AB1E2255
:104F600041210E4805F062F9227913A101A8F6F754
:104F7000FDFF01AB1E226921084805F057F9B4F87E
:104F800064200DA101A8F6F7F1FF01AB32225521F3
:104F9000024805F04BF91FBDB8F50108486E002026
:104FA0000C020020534C4F543A0000004341504142
:104FB000434954593A000000253032640000000093
:104FC00010B5FDF719FCBDE81040FDF749BC000025
:104FD0001FB5114C627911A101A8F6F7C7FF11A303
:104FE00023221821124805F021F901A8F1F70AF946
:104FF0004042802101EBC000C0F3470101AB3522E4
:105000000B4805F013F9022000900723227EE17D72
:10501000074804F087FF1FBD0C02002025303264D2
:1050200000000000544F54414C20534C4F5400009A
:10503000486E00207FB51AA31E221C211B4805F0D4
:10504000F5F802252B462B2241211848009504F043
:1050500069FF02232F2241211448009504F062FFCA
:10506000134C227A13A101A8F6F780FF01AB32227C
:105070002D210E4805F0DAF8627A0EA101A8F6F7A4
:1050800075FF01AB32224821084805F0CFF80095A2
:105090000723227FE17E054804F044FF7FBD000026
:1050A00054494D45204F464620310000486E0020AF
:1050B0000C02002025303264000000007FB51AA3E6
:1050C0001E221C211B4805F0B1F802252B462B227D
:1050D00041211848009504F025FF02232F22412189
:1050E0001448009504F01EFF134C227B13A101A865
:1050F000F6F73CFF01AB32222D210E4805F096F861
:10510000627B0EA101A8F6F731FF01AB32224821E4
:10511000084805F08BF80095072394F82020E17FDC
:10512000044804F0FFFE7FBD54494D45204F4646DC
:1051300020320000486E00200C020020253032642E
:10514000000000007FB51AA31E221C211B4805F099
:105150006DF802252B462B2241211848009504F0BA
:10516000E1FE02232F2241211448009504F0DAFECB
:10517000134CA27913A101A8F6F7F8FE01AB322275
:105180002D210E4805F052F8E2790EA101A8F6F79C
:10519000EDFE01AB32224821084805F047F80095A2
:1051A0000723A27E617E054804F0BCFE7FBD00009F
:1051B00054494D45204F4E2031000000486E0020DC
:1051C0000C02002025303264000000007FB51AA3D5
:1051D0001E221C211B4805F029F802252B462B22F4
:1051E00041211848009504F09DFE02232F22412101
:1051F0001448009504F096FE134CA27A13A101A85E
:10520000F6F7B4FE01AB32222D210E4805F00EF860
:10521000E27A0EA101A8F6F7A9FE01AB32224821DD
:10522000084805F003F800950723A27F617F054831
:1052300004F078FE7FBD000054494D45204F4E20BC
:1052400032000000486E00200C020020253032643D
:10525000000000001CB50A491120CDE9000103231C
:105260000F223221074804F036FE07491320CDE90A
:1052700000010B2324221721024804F02CFE1CBD40
:10528000B4E30108486E0020D8CE01082DE9FC41A6
:1052900063A316221121634804F0C8FF62A31622FB
:1052A0002921604804F0C2FF60A316223E215D4818
:1052B00004F0BCFF5EA3162254215A4804F0B6FF46
:1052C0005CA316226A21574804F0B0FF5A4C5BA138
:1052D00001A894F83F20F6F749FE59A324220021A3
:1052E000504804F0A3FF4EA3322200214D4804F0A1
:1052F0009DFF4DA3402200214A4804F097FF94F8F7
:105300003F00012808D0022814D0032820D0042808
:105310002CD0052838D049E044A32422002141485C
:1053200004F084FF42A3322200213E4804F07EFFB5
:1053300040A336E043A3242200213A4804F076FF3C
:1053400041A332220021374804F070FF3FA328E038
:105350003FA324220021334804F068FF38A33222FF
:105360000021304804F062FF2DA31AE02EA324226E
:1053700000212C4804F05AFF2CA332220021294896
:1053800004F054FF2AA30CE02AA32422002125487C
:1053900004F04CFF2BA332220021224804F046FFE8
:1053A00029A3402200211F4804F040FF22200025AD
:1053B000284E84F83C000E2784F83B7094F83F0098
:1053C0006D1CEDB2C0EB0010284406EB800111F813
:1053D000031C632901D920A308E02049084420A127
:1053E00010F8012C6846F6F7C1FD6B4694F83C2096
:1053F00094F83B100B4804F019FF94F83B0016306A
:10540000C0B284F83B007828D8D394F83C000E3022
:10541000C0B284F83C004628CED3BDE8FC81000031
:1054200031000000486E0020320000003300000010
:1054300034000000350000000C020020256400004C
:105440003000000036000000370000003800000087
:10545000390000008806002078000000700B002052
:1054600025303264000000001FB50D4802780DA100
:1054700001A8F6F77BFD01AB0B2264210A4804F07A
:10548000D5FE0AA30B227821074804F0CFFE0F2097
:10549000012300901A467521034804F065FD1FBDE5
:1054A0000C02002025326400486E002043000000FA
:1054B0001FB53149314804F071FF02240A23192233
:1054C0004E212E48009404F02DFD0A232D224E215A
:1054D0002A48009404F026FD0094294C072327480D
:1054E00094F8222094F821100F3404F01BFD25A31A
:1054F0001E220A21214804F099FE24A332220A2107
:105500001E4804F093FE23A31E2237211B4804F0FB
:105510008DFE21A31E225F21184804F087FE227809
:105520001EA101A8F6F722FD01AB32223721134854
:1055300004F07CFE627819A101A8F6F717FD01AB13
:1055400032225F210D4804F071FEA27815A101A856
:10555000F6F70CFD01AB1E223721084804F066FE69
:10556000E27810A101A8F6F701FD01AB1E225F2130
:10557000024804F05BFE1FBDB8F50108486E00202C
:105580000C02002054454D503A0000005345543A57
:105590000000000031350000323000002530326458
:1055A00000000000256400001FB51949194804F0E7
:1055B000F5FE02240A232D223A211648009404F015
:1055C000B1FC0094144C0723124894F8262014F8D8
:1055D000251F04F0A7FC11A31E2230210D4804F062
:1055E00025FEA2780FA101A8F6F7C0FC01AB32227C
:1055F0002321084804F01AFEE2780AA101A8F6F770
:10560000B5FC01AB32224B21024804F00FFE1FBD56
:10561000B8F50108486E00200C020020534C4F548E
:105620000000000025303264000000001CB5054970
:105630001120CDE900010E2326220021024804F0AA
:105640004AFC1CBDF8CB0108486E002008B50AA32F
:105650001E221C210B4804F0E9FD0B4890F856204F
:105660000AA16846F6F782FC6B46322235210548CE
:1056700004F0DCFD08BD0000524553455420534959
:105680004D000000486E00200C0200202564000040
:1056900008B50AA31E221C210B4804F0C7FD0B48C5
:1056A00090F855200AA16846F6F760FC6B46322256
:1056B0003521054804F0BAFD08BD000052455345A8
:1056C0005420564D43000000486E00200C0200207C
:1056D0002564000008B50DA31E220C210F4804F01C
:1056E000A5FD0F480FA102786846F6F73FFC684613
:1056F000F0F788FD4042402101EB8000C1B26B46CB
:105700003222064804F092FD08BD0000546F746117
:105710006C2050726F64756374000000486E002046
:105720002E000020256400007CB516480E24164D7E
:1057300090F846001026A0B1012811D1CDE90065EE
:105740000E2311220521114804F0C5FBA5F549607F
:10575000CDE900400E23212200210C4804F0BBFBC0
:105760007CBD0B480F23CDE90040112205210748DD
:1057700004F0B1FBCDE900650E2321220521034889
:10578000ECE700000C020020A9E00108486E0020B0
:1057900073D501080C4810B590F8470048B10128AE
:1057A00011D11E2209A30A21BDE810400B4804F0C4
:1057B0003DBD0BA31E222421084804F037FD2E22F4
:1057C00009A30021F0E710BD0C0200205550444110
:1057D000544520535543434553530000486E002021
:1057E00057414954494E470055504441544520497A
:1057F0005020494E464F00000F4810B590F8440025
:1058000058B1012813D0022815D11E220BA318214C
:10581000BDE810400C4804F009BD0CA31E22242151
:10582000094804F003FD2E220AA30021F0E71E22FE
:105830000DA31C21ECE710BD0C0200205550444183
:105840005445204552520000486E002057414954AB
:10585000494E470055504441544520534C4F542025
:10586000494E464F00000000555044415445204FDA
:105870004B0000000EB509A207CA8DE80700684674
:10588000F0F7C0FC4042802101EBC000C0F34701AB
:105890006B461E22044804F0C9FC0EBD57616974B2
:1058A000696E672E2E2E0000486E002000B587B06E
:1058B00014490E20CDE9000110230F2200211248C7
:1058C00004F009FB114812A1426B02A8F6F74EFB47
:1058D00002A8F0F797FC4042402101EB8000C1B2E2
:1058E00002AB2E22084804F0A1FC0A491120CDE9A0
:1058F000000110232F220021034804F0ECFA07B026
:1059000000BD000033E20108486E00208C02002038
:10591000256400009ADE01087CB517480E24112585
:1059200090F84500154E012815D0022812D1CDE976
:1059300000560A2311221821114804F0CCFAA6F5CA
:105940005760CDE900400E2328220D48082100BFF2
:1059500004F0C1FA7CBD0B480F23CDE900401122B1
:105960000521074804F0B7FACDE900560A2323229F
:1059700019210348ECE700000C02002089E101082E
:10598000486E002073D501081CB50B490F20CDE9E6
:1059900000010A230E221921084804F09CFA064946
:1059A0000E209631CDE900010F2322220521034864
:1059B00004F091FA1CBD0000DDD40108486E0020FF
:1059C0001CB50D480DA1C2686846F6F7CFFA0CA3C6
:1059D000232210210E4804F029FC6846F0F712FC3F
:1059E0004042802101EBC000C0F347016B463522E5
:1059F000074804F01BFC1CBD8C020020256400003D
:105A0000594541524C592053414C45530000000028
:105A1000486E00202DE9F05FE449E54B002000BF0F
:105A200001EB800200EB40051468D27824BA24F020
:105A3000FF04144303EB8502401C9A4694603C2803
:105A4000EED30022DB4C1046DB492D2307E008286B
:105A500063D00D2861D012285FD017285DD0A55CD7
:105A60000D54521C401C2428F1DB0025D24F81F834
:105A70002450D2482946F03F425C07EB8103491C81
:105A80005A703C29F8D3CE48CE4A0021435C535487
:105A9000491C0229FAD3CB4ACB480021921C435C13
:105AA0005354491C0229FAD3C649C84B303100224D
:105AB00028464D609C5C521C04EB0020042AF9D35C
:105AC0004FF0004348600022181AAA4100DA4D60E6
:105AD000BF4C002228460D61A35C521C03EB002042
:105AE000042AF9D38B460861BA49884201D9CBF818
:105AF0001050DFF8D0922079A9F15009C82889F810
:105B0000370001D989F837500526A05D0028A6F195
:105B10000500C0B203D0012102E00B54A2E700212E
:105B200002F0C0FB761C652EEFD394F866004FF0B0
:105B30000108AA2842D089F8298000BFA14894F81A
:105B4000D0153030AA2945D080F8018094F8D115BD
:105B5000AA2941D080F8008094F8D215AA293DD016
:105B600080F8028094F8D315AA2939D080F80380F0
:105B700094F86710984A89F82A1094F81013117055
:105B8000964A94F8111348461170954A94F81213E6
:105B9000117094F8131300F8241F94F81413417033
:105BA00099F8290000287DD094F815238D4989F8AB
:105BB0002120642A16D989F821503FE089F829501C
:105BC0005FF0000007EB80018870401CC0B23C28E9
:105BD000F8D3B3E74570B9E70570BDE78570C1E755
:105BE000C570C5E752B3744A40F21630253240F210
:105BF0007A3C1618235CA6F58056401C86F8EA3CD1
:105C00006045F6D36C4A002012F18A0204EB40038F
:105C1000B3F87A335BBA22F81030401C6428F5D30D
:105C200040F2424040F2A6420E18235CA6F5805690
:105C3000401C86F8BE3B9042F6D307E000200D548E
:105C4000401C6428FBD3152000F0D4F8B4F8680099
:105C50004FF0FC7240BAA9F8460094F86D1094F821
:105C60006E0002EAC14141EA406194F86C00921171
:105C700002EA4030084394F86B104FF4F85202EAFD
:105C80000121014394F86A004E460843706694F877
:105C9000A60422281BD0757686F818807567002127
:105CA000284600E00FE0B56502026018491C90F834
:105CB000AC0410430429F7D34CF25031B06588424C
:105CC00008D9756707E089F821501220BCE786F8EB
:105CD0001980E1E77067706FFCF726FF94F8B00455
:105CE000012801D0022802D086F8345001E086F85D
:105CF0003480594600222846CBF80C500302A018E5
:105D0000521C90F8A8041843042AF7D3364AC860F6
:105D1000904200D9CD60002228468D600302A01871
:105D2000521C90F8B1041843042AF7D32F4A886014
:105D3000904201D9CBF8085094F8C50530701E2860
:105D400000D935701F4894F8CE15001F284A0170FD
:105D500094F8CF15417000204FEA0A0100EBC00310
:105D600000EB400C02EB8303401C41F82C301E2852
:105D7000F4D33078A8B196F8290070B14FF42C70A4
:105D80004FF43B7107EB8002235CA2F58052401C6C
:105D900082F842358842F5D303E035701F2000F0C9
:105DA00029F8BDE8F05F05F0C9BC000000D0070885
:105DB0002005002000C007087807002000D8070849
:105DC00000E007085800002000E8070800A00708C6
:105DD00000F007083F420F0038020020390200207F
:105DE00037020020CA08002000CA9A3BC0E1E40044
:105DF00000B007082DE9F04FADF6040D05464FF44D
:105E0000006631466846F0F7DAF9F8496C461C2D11
:105E100038D01E2D50D0092D71D000200A5C22549C
:105E2000401CB042FAD3F248AA21552290F800A0B3
:105E3000F04840F2163B40F2424E90F8009090F845
:105E400001C0ED482F2D07784378EC48407850D2B8
:105E5000DFE805F04350564F606B70788C4F914FE0
:105E6000AFBFC8CDD2F0EEEDECEBEAE9E8E7E6E54E
:105E70004FE44FE3E2E1E0DFDEDDDCDBDAD94F4F78
:105E80004FD8D7000025DE4EDE4F0BE005EB450076
:105E9000242257F8201005EBC50004EB8000F0F732
:105EA000A5F96D1C30788542F0D3C0B200EBC0007C
:105EB00081006A46D44855E2D44822460068010E63
:105EC0008DF80010010C8DF80110010A8DF80210F8
:105ED0008DF803000421CE4844E2CE4900200A6830
:105EE000C0F10301CB0022FA03F12154401C042825
:105EF000F6D3F7E1C84800788DF80400F2E127E214
:105F00000525681FC0B202F0F1F860556D1C412DE7
:105F1000F7D3E7E1C14800788DF8660010B18DF83D
:105F20006620DFE18DF86610DCE1BD4800788DF871
:105F30006700D7E1BB480088010A8DF868108DF82A
:105F40006900CFE1B84800688DF86A00C0F3042109
:105F50008DF86B10C0F345318DF86C10C0F3C5415E
:105F60008DF86D10400E8DF86E00BBE1AF480078E3
:105F70008DF86F00B6E1AE4BAE4D002004EB400251
:105F800033F810100E0A02F8706F517055F8201097
:105F900004EB80020E0E82F830610E0C82F8316143
:105FA0000E0A82F83261401C82F833113C28E5D396
:105FB00098E1A1494FF42C704FF43B7301EB800240
:105FC000A2F5805292F842252254401C9842F5D303
:105FD00088E19A4800788DF81003994800788DF888
:105FE00011037FE1974800788DF812037AE1964813
:105FF00000788DF8130375E1944800788DF8140348